:020000040800F2
:10000000005000205D100008F50D0008F70D0008F5
:10001000F90D0008FB0D0008FD0D000800000000B0
:10002000000000000000000000000000FF0D0008BC
:10003000010E000800000000030E0008050E000875
:10004000A5100008A5100008A5100008A5100008BC
:10005000A5100008A5100008A5100008A5100008AC
:10006000A5100008A5100008A5100008A51000089C
:10007000A5100008A5100008A5100008A51000088C
:10008000A5100008A5100008A5100008A51000087C
:10009000A5100008A5100008A5100008A51000086C
:1000A000A5100008A5100008A5100008A51000085C
:1000B000A5100008A5100008A5100008A51000084C
:1000C000A5100008A5100008A5100008A51000083C
:1000D000A5100008A5100008A5100008A51000082C
:1000E000A5100008A5100008A510000800000000D9
:1000F0000000000000000000000000000000000000
:0C01000000000000000000005FF808F1A3
:10011000844641EA000313F0030349D1403A23D354
:100120000B6803604B6843608B688360CB68C36077
:100130000B6903614B6943618B698361CB69C3615F
:100140000B6A03624B6A43628B6A8362CB6AC36247
:100150000B6B03634B6B43638B6B8363CB6BC3632F
:1001600040304031403ADBD230320BD30B68036071
:100170004B6843608B688360CB68C360103010317C
:10018000103AF3D20C3205D351F8043B40F8043B4B
:10019000043AF9D2043208D0D2071CBF11F8013B4F
:1001A00000F8013B01D30B8803806046704700BF15
:1001B000082A13D38B07B1D010F00303AED0C3F1DC
:1001C0000403D21ADB071CBF11F8013B00F8013B06
:1001D000A4D331F8023B20F8023B9FE7043AD9D37D
:1001E000013A11F8013B00F8013BF9D20B7803709A
:1001F0004B7843708B7883706046704781F0004184
:1002000002E000BF83F0004330B54FEA41044FEAFB
:10021000430594EA050F08BF90EA020F1FBF54EA96
:10022000000C55EA020C7FEA645C7FEA655C00F032
:10023000E2804FEA5454D4EB5555B8BF6D420CDD03
:100240002C4480EA020281EA030382EA000083EA86
:10025000010180EA020281EA0303362D88BF30BD26
:1002600011F0004F4FEA01314FF4801C4CEA11317C
:1002700002D0404261EB410113F0004F4FEA0333DB
:100280004CEA133302D0524263EB430394EA050F66
:1002900000F0A780A4F10104D5F1200E0DDB02FAD5
:1002A0000EFC22FA05F2801841F1000103FA0EF269
:1002B000801843FA05F359410EE0A5F120050EF12F
:1002C000200E012A03FA0EFC28BF4CF0020C43FA60
:1002D00005F3C01851EBE37101F0004507D54FF06D
:1002E000000EDCF1000C7EEB00006EEB0101B1F5BD
:1002F000801F1BD3B1F5001F0CD349085FEA300003
:100300004FEA3C0C04F101044FEA445212F5800F0D
:1003100080F09A80BCF1004F08BF5FEA500C50F1AA
:10032000000041EB045141EA050130BD5FEA4C0C8D
:10033000404141EB0101013C28BFB1F5801FE9D2EA
:1003400091F0000F04BF01460020B1FA81F308BF0D
:100350002033A3F10B03B3F120020CDA0C3208DDD9
:1003600002F1140CC2F10C0201FA0CF021FA02F1B4
:100370000CE002F11402D8BFC2F1200C01FA02F124
:1003800020FA0CFCDCBF41EA0C019040E41AA2BF49
:1003900001EB0451294330BD6FEA04041F3C1CDA11
:1003A0000C340EDC04F11404C4F1200220FA04F031
:1003B00001FA02F340EA030021FA04F345EA0301DB
:1003C00030BDC4F10C04C4F1200220FA02F001FA9D
:1003D00004F340EA0300294630BD21FA04F029461F
:1003E00030BD94F0000F83F4801306BF81F48011B8
:1003F0000134013D4EE77FEA645C18BF7FEA655C2B
:1004000029D094EA050F08BF90EA020F05D054EAFC
:10041000000C04BF1946104630BD91EA030F1EBF01
:100420000021002030BD5FEA545C05D14000494105
:1004300028BF41F0004130BD14F580043CBF01F5F8
:10044000801130BD01F0004545F0FE4141F47001DE
:100450004FF0000030BD7FEA645C1ABF19461046B9
:100460007FEA655C1CBF0B46024650EA013406BFBA
:1004700052EA033591EA030F41F4002130BD00BF79
:1004800090F0000F04BF0021704730B54FF4806436
:1004900004F132044FF000054FF0000150E700BFB7
:1004A00090F0000F04BF0021704730B54FF4806416
:1004B00004F1320410F0004548BF40424FF0000103
:1004C0003EE700BF42004FEAE2014FEA31014FEA46
:1004D00002701FBF12F07F4393F07F4F81F0605195
:1004E000704732F07F4208BF704793F07F4F04BFE0
:1004F00041F40021704730B54FF4607401F00045BD
:1005000021F000411CE700BF50EA010208BF70471C
:1005100030B54FF000050AE050EA010208BF70470D
:1005200030B511F0004502D5404261EB41014FF476
:10053000806404F132045FEA915C3FF4D8AE4FF07E
:1005400003025FEADC0C18BF03325FEADC0C18BF61
:10055000033202EBDC02C2F1200300FA03FC20FAB2
:1005600002F001FA03FE40EA0E0021FA02F11444FF
:10057000BDE600BF70B54FF0FF0C4CF4E06C1CEA18
:1005800011541DBF1CEA135594EA0C0F95EA0C0F89
:1005900000F0DEF82C4481EA030621EA4C5123EAFC
:1005A0004C5350EA013518BF52EA033541F480112B
:1005B00043F4801338D0A0FB02CE4FF00005E1FBDE
:1005C00002E506F00042E0FB03E54FF00006E1FB28
:1005D00003569CF0000F18BF4EF0010EA4F1FF046B
:1005E000B6F5007F64F5407404D25FEA4E0E6D41AB
:1005F00046EB060642EAC62141EA55514FEAC520BC
:1006000040EA5E504FEACE2EB4F1FD0C88BFBCF537
:10061000E06F1ED8BEF1004F08BF5FEA500E50F1E8
:10062000000041EB045170BD06F0004646EA0101AE
:1006300040EA020081EA0301B4EB5C04C2BFD4EBE0
:100640000C0541EA045170BD41F480114FF0000ED9
:10065000013C00F3AB8014F1360FDEBF002001F047
:10066000004170BDC4F10004203C35DA0C341BDCC1
:1006700004F11404C4F1200500FA05F320FA04F093
:1006800001FA05F240EA020001F0004221F00041C7
:1006900010EBD37021FA04F642EB06015EEA430E3A
:1006A00008BF20EAD37070BDC4F10C04C4F120056A
:1006B00000FA04F320FA05F001FA04F240EA02001D
:1006C00001F0004110EBD37041F100015EEA430EEE
:1006D00008BF20EAD37070BDC4F1200500FA05F20E
:1006E0004EEA020E20FA04F301FA05F243EA02038D
:1006F00021FA04F001F0004121FA04F220EA02009C
:1007000000EBD3705EEA430E08BF20EAD37070BDE1
:1007100094F0000F0FD101F00046400041EB0101C1
:1007200011F4801F08BF013CF7D041EA060195F0A3
:10073000000F18BF704703F00046520043EB03035D
:1007400013F4801F08BF013DF7D043EA060370474A
:1007500094EA0C0F0CEA135518BF95EA0C0F0CD055
:1007600050EA410618BF52EA4306D1D181EA03019B
:1007700001F000414FF0000070BD50EA410606BF95
:100780001046194652EA430619D094EA0C0F02D1DA
:1007900050EA013613D195EA0C0F05D152EA03361F
:1007A0001CBF104619460AD181EA030101F000413D
:1007B00041F0FE4141F470014FF0000070BD41F086
:1007C000FE4141F4780170BD70B54FF0FF0C4CF460
:1007D000E06C1CEA11541DBF1CEA135594EA0C0F7F
:1007E00095EA0C0F00F0A7F8A4EB050481EA030ECC
:1007F00052EA03354FEA013100F088804FEA0333B3
:100800004FF0805545EA131343EA12634FEA022280
:1008100045EA111545EA10654FEA00260EF0004141
:100820009D4208BF964244F1FD0404F5407402D293
:100830005B084FEA3202B61A65EB03055B084FEA24
:1008400032024FF480104FF4002CB6EB020E75EB21
:10085000030E22BFB61A754640EA0C005B084FEA49
:100860003202B6EB020E75EB030E22BFB61A7546C6
:1008700040EA5C005B084FEA3202B6EB020E75EB11
:10088000030E22BFB61A754640EA9C005B084FEA89
:100890003202B6EB020E75EB030E22BFB61A754696
:1008A00040EADC0055EA060E18D04FEA051545EA85
:1008B00016754FEA06164FEAC30343EA52734FEA2E
:1008C000C2025FEA1C1CC0D111F4801F0BD141EAA7
:1008D00000014FF000004FF0004CB6E711F4801F0C
:1008E00004BF01430020B4F1FD0C88BFBCF5E06FEC
:1008F0003FF6AFAEB5EB030C04BFB6EB020C5FEAFC
:10090000500C50F1000041EB045170BD0EF0004E50
:100910004EEA113114EB5C04C2BFD4EB0C0541EA82
:10092000045170BD41F480114FF0000E013C90E67F
:1009300045EA060E8DE60CEA135594EA0C0F08BF43
:1009400095EA0C0F3FF43BAF94EA0C0F0AD150EA42
:1009500001347FF434AF95EA0C0F7FF425AF1046D5
:1009600019462CE795EA0C0F06D152EA03353FF4FD
:10097000FDAE1046194622E750EA410618BF52EA7A
:1009800043067FF4C5AE50EA41047FF40DAF52EA4E
:1009900043057FF4EBAE12E74FF0FF3C06E000BFEB
:1009A0004FF0010C02E000BF4FF0010C4DF804CDF8
:1009B0004FEA410C7FEA6C5C4FEA430C18BF7FEAB8
:1009C0006C5C1BD001B050EA410C0CBF52EA430CE6
:1009D00091EA030F02BF90EA020F0020704710F166
:1009E000000F91EA030F58BF994208BF90422CBFF5
:1009F000D8176FEAE37040F0010070474FEA410CEE
:100A00007FEA6C5C02D150EA013C07D14FEA430C0B
:100A10007FEA6C5CD6D152EA033CD3D05DF8040B7C
:100A2000704700BF8446104662468C4619466346AE
:100A300000E000BF01B5FFF7B7FF002848BF10F185
:100A4000000F01BD4DF808EDFFF7F4FF0CBF0120CA
:100A500000205DF808FB00BF4DF808EDFFF7EAFF46
:100A600034BF012000205DF808FB00BF4DF808ED01
:100A7000FFF7E0FF94BF012000205DF808FB00BFF6
:100A80004DF808EDFFF7CEFF94BF012000205DF880
:100A900008FB00BF4DF808EDFFF7C4FF34BF01208D
:100AA00000205DF808FB00BF4FEA410C7FEA6C5C58
:100AB00002D150EA013C0AD14FEA430C7FEA6C5C58
:100AC00002D152EA033C02D14FF0000070474FF0D0
:100AD000010070474FEA410212F5001215D211D5FC
:100AE0006FF47873B3EB625212D94FEAC12343F02B
:100AF000004343EA505311F0004F23FA02F018BFAD
:100B0000404270474FF00000704750EA013005D175
:100B100011F0004008BF6FF0004070474FF0000038
:100B2000704700BF0348044B834202D0034B03B11C
:100B300018477047FC060020FC060020000000005B
:100B40000548064B1B1AD90F01EBA301491002D02F
:100B5000034B03B118477047FC060020FC06002039
:100B60000000000010B5064C237843B9FFF7DAFF08
:100B7000044B13B10448AFF300800123237010BD70
:100B8000FC06002000000000C094000808B5054BDA
:100B90001BB105490548AFF30080BDE80840FFF7E9
:100BA000CFBF00BF0000000000070020C094000875
:100BB00000B589B004A9002304934B608B60CB601F
:100BC00003F1804303F504339A6942F010029A61FD
:100BD0009A6902F010020092009A9A6942F020028B
:100BE0009A619A6902F020020192019A9A6942F090
:100BF00004029A619A6902F004020292029A9A69C6
:100C000042F008029A619B6903F008030393039B77
:100C10004FF40043049301230693034800F00CFBB8
:100C200009B05DF804FB00BF000C014008B50B489B
:100C30000B4B03600B4B436000238360C3604FF496
:100C40008042026143618361C361036200F0A2FDDF
:100C500000B908BD00F03AF8FBE700BF1807002014
:100C600000540040801A060010B586B0002302939D
:100C70000393049305930268114B9A4201D006B086
:100C800010BD104CA36943F00803A361A36903F0EE
:100C900008030093009BC0230293122303930323B2
:100CA000059302A9084800F0C7FAE36943F400136A
:100CB000E361E36903F400130193019BDFE700BFE5
:100CC0000054004000100240000C014072B6FEE7E4
:100CD00010B594B00AAC28220021204601F0FAFD9C
:100CE00000230593069307930893099301930293B6
:100CF0000393049305230A934FF480330B9301224B
:100D00000D920E920222119212934FF4E01313935C
:100D1000204600F0E3FEC0B90F230593022106919F
:100D2000002307934FF480620892099305A801F00D
:100D300007F960B9012301934FF48073029301A86E
:100D400001F0DAF928B914B010BDFFF7BFFFFFF7C3
:100D5000BDFFFFF7BBFF000008B500F0CBF9FFF7C0
:100D6000B7FFFFF725FFFFF761FF00F013F800F072
:100D7000ADF800F01DF901F085FC01F0ABFC70212D
:100D8000034801F0C5FC7021014801F0C1FCFAE7FD
:100D9000D8940008044B054A1A604FF0FF325A609D
:100DA0004FF480729A6070476C0700200028004062
:100DB00082B00E4B9A6942F001029A619A6902F080
:100DC00001020092009ADA6942F08052DA61DB692E
:100DD00003F080530193019B054A536823F0E063BD
:100DE00043F00073536002B0704700BF0010024030
:100DF00000000140FEE7FEE7FEE7FEE7FEE7704782
:100E00007047704708B500F087F908BD01207047AA
:100E100008B501F0ADFD162303604FF0FF3008BDAB
:100E200008B54FF0FF31FFF7F3FFFEE770B50C4652
:100E30001646002506E0AFF30080214601F8010BBD
:100E400001350C46B542F6DB304670BD70B50C4638
:100E50001646002504E014F8010B00F099F801355E
:100E6000B542F8DB304670BD4FF0FF3070474FF4AD
:100E700000534B60002070470120704700207047EE
:100E800010B503460C4A0D490D48006840B10C48A6
:100E900000680344521A934206D8094A136010BDF1
:100EA0000748084C0460F2E701F062FD0C23036080
:100EB0004FF0FF30F3E700BF0050002000040000B7
:100EC00080070020300B00207047000010B58CB068
:100ED00003AC24220021204601F0FCFC00230193F6
:100EE00002931248124A02600122426083604FF668
:100EF000FF71C16003614361836103920592022324
:100F000008930992214601F0C5F948B900230193DD
:100F1000029301A9054801F019FA20B90CB010BDDF
:100F2000FFF7D4FEF2E7FFF7D1FEF7E784070020D2
:100F3000002C014000B587B0002302930393049373
:100F400005930268104B9A4202D007B05DF804FB8B
:100F500003F564439A6942F400629A619A6902F463
:100F600000620092009A9A6942F004029A619B69B9
:100F700003F004030193019B4FF44073029302A911
:100F8000024800F059F9E0E7002C01400008014058
:100F900000B583B001904FF6FF73012201A9034809
:100FA00001F0F5FA019803B05DF804FBCC070020CE
:100FB00008B50A480A4B03604FF4E133436000234D
:100FC0008360C36003610C2242618361C36101F0ED
:100FD000AEFA00B908BDFFF779FEFBE7CC070020A9
:100FE0000044004030B587B000230293039304937C
:100FF00005930268174B9A4201D007B030BD03F544
:10100000E633DA6942F40032DA61DA6902F4003276
:101010000092009A9A6942F004029A619B6903F077
:1010200004030193019B04230293022303930323EC
:10103000059302AD084C2946204600F0FDF8082330
:1010400002930023039304932946204600F0F4F80A
:10105000D3E700BF0044004000080140FFF734FF21
:101060000B480C490C4A002302E0D458C450043306
:10107000C4188C42F9D3094A094C002301E01360DB
:101080000432A242FBD301F079FCFFF765FE704702
:1010900000000020FC06002024990008FC06002027
:1010A0002C0B0020FEE7000010B504460E4B1A780A
:1010B0004FF47A73B3FBF2F30C4A1068B0FBF3F011
:1010C00000F0A6F868B90F2C01D901200AE000222F
:1010D00021464FF0FF3000F08BF8054B1C600020DC
:1010E00000E0012010BD00BF04000020000000202F
:1010F0000800002008B5074A136843F01003136086
:10110000032000F063F80F20FFF7CEFFFFF750FE3B
:10111000002008BD00200240034A1168034B1B78E1
:101120000B441360704700BF140800200400002027
:10113000014B1868704700BF1408002038B50446FA
:10114000FFF7F6FF0546B4F1FF3F02D0044B1B78D2
:101150001C44FFF7EDFF401BA042FAD338BD00BF8F
:1011600004000020002808DB0901C9B200F160403A
:1011700000F5614080F80013704700F00F0009018E
:10118000C9B2014B1954704714ED00E000B500F0EE
:101190000700C0F1070CBCF1040F28BF4FF0040C8E
:1011A000031D062B0FD9C31E4FF0FF3E0EFA0CF0A5
:1011B00021EA000199400EFA03FE22EA0E0241EAFA
:1011C00002005DF804FB0023EEE70000074AD36845
:1011D00023F4E0631B041B0C000200F4E0600343F3
:1011E00043F0BF6343F40033D360704700ED00E089
:1011F00010B50446054BD868C0F30220FFF7C6FFC0
:1012000001462046FFF7AEFF10BD00BF00ED00E035
:101210000138B0F1807F0BD24FF0E0235861054ACE
:10122000F02182F823100020986107221A6170478C
:101230000120704700ED00E070B582B00024A446A4
:101240009EE07C4DAB4214D00CD8A5F58015AB4286
:101250000FD005F57025AB420BD0A5F58015AB423C
:101260001FD106E0744DAB4203D005F58035AB428B
:1012700017D18B68A3B1012B0DD04261082410E077
:10128000CC680EE0CC6804340BE0CC68083408E08D
:10129000CC680C3405E00261082402E0002400E080
:1012A0000424BEF1FF0F37D806464FEA8C0233689C
:1012B0000F25954023EA050304FA02F21343336035
:1012C0004B6813F0805F59D05C4B9A6942F0010281
:1012D0009A619B6903F001030193019B4FEA9C0211
:1012E000951C574B53F825600CF00305AD000F23F8
:1012F000AB4026EA0306534B984214D003F58063B3
:10130000984279D003F58063984277D003F58063E3
:10131000984206D0042307E0061DACF108029200B3
:10132000C5E7032300E00023AB4033430232444DC2
:1013300045F822304B6813F4801F61D0424A93680D
:1013400043EA0E0393604B6813F4001F5ED03E4ADD
:10135000D36843EA0E03D3604B6813F4003F5BD0BD
:10136000394A536843EA0E0353604B6813F4803FD5
:1013700058D0354A136843EA0E0313600CF1010C90
:101380000B6833FA0CF253D0012202FA0CF203EA92
:10139000020E32EA0303F1D14B68122B3FF651AF34
:1013A000122B3FF67EAF01A555F823F0731200080B
:1013B000811200088B1200089D120008A312000879
:1013C000A3120008A3120008A3120008A312000829
:1013D000A3120008A3120008A3120008A312000819
:1013E000A3120008A3120008A3120008A312000809
:1013F0008512000891120008012395E7022393E764
:10140000114A936823EA0E0393609CE70E4AD3685F
:1014100023EA0E03D3609FE70B4A536823EA0E03C7
:101420005360A2E7084A136823EA0E031360A5E796
:1014300002B070BD00002210000031100010024008
:1014400000000140000801400004014003685A699F
:1014500012F4806F01D1002070476FF480625A61EE
:1014600000230363202280F83D2080F83E30026C88
:1014700042F00402026480F83C30012070472DE9FC
:10148000F04106460C46174698463BE0FFF750FEF3
:10149000069BC01A404502D8B8F1000F32D1012D89
:1014A00018D033689B6924EA03039BB2B3FA83F331
:1014B0005B099F4226D100233363202286F83D201A
:1014C00086F83E30326C42F02002326486F83C30BE
:1014D000012027E033685B6924EA03039BB2B3FA77
:1014E00083F35B09E5E733685B6924EA030C1FFAC1
:1014F0008CFCBCFA8CFC4FEA5C1C674511D1B8F13E
:10150000FF3FC3D1C4F30745012DECD033689B697D
:1015100024EA030C1FFA8CFCBCFA8CFC4FEA5C1C1E
:10152000EBE70020BDE8F0812DE9F84305460E46C3
:101530009046994653E01A6842F400721A602B688C
:101540006FF480625A6100232B63202285F83D20CE
:1015500085F83E302A6C42F004022A6485F83C305B
:1015600001204AE0FFF7E4FDA0EB0900404502D866
:10157000B8F1000F33D1012F17D02B689B6926EAF1
:1015800003039BB2003B18BF012343B300232B632B
:10159000202285F83D2085F83E302A6C42F020025A
:1015A0002A6485F83C30012027E02B685B6926EA35
:1015B00003039BB2003B18BF0123E6E72B689C693D
:1015C00026EA0404A4B2003C18BF0124A4B12B688D
:1015D0005A6912F4806FAED1B8F1FF3FC2D1C6F3A1
:1015E0000747012FEAD12B685C6926EA0404A4B2FC
:1015F000003C18BF0124E9E70020BDE8F88370B57E
:1016000004460D46164623685B6913F0800F21D10E
:101610002046FFF71BFFF8B9B5F1FF3FF3D0FFF706
:1016200087FD801BA84201D8002DECD123685B699F
:1016300013F0800FE7D100232363202284F83D209C
:1016400084F83E30226C42F02002226484F83C3060
:10165000012000E0002070BD0120FCE72DE9F043EF
:1016600085B004460D4691461F46DDF830800D9E3C
:101670000368196841F4807119600096434600229E
:101680004FF00111FFF7FBFE60B9236805F0FE057E
:101690001D613346424626492046FFF745FF68B1A3
:1016A000012008E023681B6813F4807F02D04FF408
:1016B00000732364032005B0BDE8F0830023039387
:1016C00023685A6903929B690393039B3246414600
:1016D0002046FFF794FF30B9012F0FD123685FFA3E
:1016E00089F61E61E7E7236C042B01D00120E2E7B5
:1016F0002268136843F400731360F7E723684FEA26
:1017000019221A61324641462046FFF778FF20B978
:1017100023685FFA89F61E61CDE7236C042B01D0A4
:101720000120C8E72268136843F400731360F7E7E9
:101730000200010070B504460D46164623685B6939
:1017400013F0040F21D12046FFF780FEF8B9B5F160
:10175000FF3FF3D0FFF7ECFC801BA84201D8002D1F
:10176000ECD123685B6913F0040FE7D100232363F6
:10177000202284F83D2084F83E30226C42F0200282
:10178000226484F83C30012000E0002070BD01207C
:10179000FCE70000002800F0CC8070B5044690F80B
:1017A0003D30002B77D0242384F83D302268136825
:1017B00023F0010313602268136843F400431360AD
:1017C0002268136823F40043136000F075FC62681C
:1017D0005A4B9A4264D85A4B98428CBF002301233B
:1017E000002B40F0A8805749A1FB00318B0C2568E5
:1017F0006A6822F03F0242EA91426A6021680A6AFE
:1018000022F03F0266684D4DAE424FD8013313437C
:101810000B622168CA6922F44F4222F0FF02656818
:10182000464B9D424CD8431E6D00B3FBF5F301338C
:1018300040F6FC70034278D0C3F30B031A43CA612D
:1018400021680B6823F0C003E269206A0243134356
:101850000B6021688B6823F4034323F0FF032269A4
:10186000E068024313438B602168CB6823F0FF03D9
:101870006269A06902431343CB602268136843F096
:101880000103136000202064202384F83D3020638E
:1018900084F83E0070BD80F83C30FFF7E5F982E740
:1018A000294B98428CBF0023012399E74FF496758A
:1018B00005FB03F3254DA5FB03539B090133A6E765
:1018C000A668BEB9431E05EB450CB3FBFCF3013320
:1018D000C3F30B03B3FA83F35B0943BBC6B9431EDF
:1018E00005EB4505B3FBF5F30133C3F30B0343F4F9
:1018F0000043A3E7431E05EB850C0CEB8C0CB3FBFC
:10190000FCF30133C3F30B03B3FA83F35B09E4E79E
:10191000431E05EB850505EB8505B3FBF5F30133A8
:10192000C3F30B0343F4404388E7042386E7012312
:1019300084E7012070470120ACE700BFA0860100CA
:101940007F841E0083DE1B43FF083D00D34D6210E1
:101950002DE9F04383B004460F46904699460C9E0D
:10196000FFF7E6FB94F83D20202A03D0022003B0C5
:10197000BDE8F08305460090192301224A4920461C
:10198000FFF77DFD002840F0898094F83C30012B62
:1019900000F08680012384F83C3023681A6812F036
:1019A000010F03D11A6842F001021A60226813681D
:1019B00023F400631360212384F83D30402384F82E
:1019C0003E30002323640A9B6362BDF82C3063859C
:1019D000638D2385354BE362019500964B46424665
:1019E00039462046FFF73AFE00285BD1238D002BB5
:1019F00035D02A4631462046FFF701FE20BB626AF9
:101A0000236812781A61626A531C6362218D01395E
:101A100089B22185638D9BB2013B9BB263852368AC
:101A2000586910F0040FE1D00029DFD052781A6114
:101A3000636A01336362238D013B2385638D9BB20F
:101A4000013B9BB26385D1E7236C042B01D00120BD
:101A50008DE72268136843F400731360F7E72A46A2
:101A600031462046FFF766FE50B1236C042B01D0AF
:101A700001207CE72268136843F400731360F7E7E2
:101A80002268136843F400731360202384F83D3008
:101A9000002384F83E3084F83C3068E7022066E793
:101AA000022064E7012062E7020010000000FFFF4F
:101AB00082B0084B1B68084AA2FB03235B0A00FBA9
:101AC00003F3019300BF019B5A1E0192002BF9D131
:101AD00002B0704700000020D34D6210002800F0D3
:101AE000F18170B582B00446036813F0010F2CD069
:101AF000994B5B6803F00C03042B1DD0964B5B687D
:101B000003F00C03082B12D06368B3F5803F41D07B
:101B1000002B55D103F1804303F504331A6822F4F6
:101B200080321A601A6822F480221A6037E08A4BE9
:101B30005B6813F4803FE7D0874B1B6813F4003FCA
:101B400003D06368002B00F0BF81236813F0020FFD
:101B500075D0814B5B6813F00C0F5FD07E4B5B68D8
:101B600003F00C03082B54D02369002B00F08A806B
:101B70007A4B01221A60FFF7DBFA0546764B1B68A9
:101B800013F0020F75D1FFF7D3FA401B0228F5D9E5
:101B900003209EE1704A136843F480331360636846
:101BA00043B3FFF7C5FA05466B4B1B6813F4003FC0
:101BB000CBD1FFF7BDFA401B6428F5D9032088E19B
:101BC000B3F5A02F09D0644B1A6822F480321A6052
:101BD0001A6822F480221A60E1E703F18043A3F53A
:101BE0003C331A6842F480221A601A6842F4803248
:101BF0001A60D4E7FFF79CFA0546574B1B6813F4AD
:101C0000003FA2D0FFF794FA401B6428F5D90320C7
:101C10005FE1514B5B6813F4803FA5D14E4B1B68CD
:101C200013F0020F03D02369012B40F04F814A4A81
:101C3000136823F0F803616943EAC1031360236862
:101C400013F0080F33D0A369002B5CD0434B012263
:101C5000C3F88024FFF76CFA05463F4B5B6A13F02C
:101C6000020F21D1FFF764FA401B0228F5D90320A7
:101C70002FE1394A136823F0F803616943EAC1038D
:101C80001360DCE7354B00221A60FFF751FA054676
:101C9000314B1B6813F0020FD1D0FFF749FA401BFC
:101CA0000228F5D9032014E10120FFF701FF236882
:101CB00013F0040F00F09680274BDB6913F0805F70
:101CC00034D1254BDA6942F08052DA61DB6903F0E6
:101CD00080530193019B0125214B1B6813F4807FE6
:101CE00026D0E368012B3DD0002B53D103F1804374
:101CF00003F504331A6A22F001021A621A6A22F00A
:101D000004021A6233E0154B0022C3F88024FFF767
:101D10000FFA0546104B5B6A13F0020FC7D0FFF7AE
:101D200007FA401B0228F5D90320D2E00025D3E7AB
:101D30000B4A136843F480731360FFF7F9F9064602
:101D4000074B1B6813F4807FCBD1FFF7F1F9801BA1
:101D50006428F5D90320BCE0001002400000424294
:101D6000007000405F4A136A43F001031362E368A6
:101D700033B3FFF7DDF906465A4B1B6A13F0020F27
:101D80002FD1FFF7D5F9801B41F288339842F3D960
:101D900003209EE0052B09D0524B1A6A22F0010263
:101DA0001A621A6A22F004021A62E0E74D4B1A6ABC
:101DB00042F004021A621A6A42F001021A62D6E77D
:101DC000FFF7B6F90646474B1B6A13F0020F08D01F
:101DD000FFF7AEF9801B41F288339842F3D9032014
:101DE00077E0E5B9E369002B72D03E4A526802F011
:101DF0000C02082A56D0022B17D03B4B00221A6641
:101E0000FFF796F90446374B1B6813F0007F47D065
:101E1000FFF78EF9001B0228F5D9032059E0314A5B
:101E2000D36923F08053D361DCE72F4B00221A667D
:101E3000FFF77EF905462B4B1B6813F0007F06D099
:101E4000FFF776F9401B0228F5D9032041E0236A09
:101E5000B3F5803F1AD023494B6823F47413226AE8
:101E6000606A024313434B601F4B01221A66FFF75F
:101E70005FF904461B4B1B6813F0007F0ED1FFF780
:101E800057F9001B0228F5D9032022E0154A5368B0
:101E900023F40033A1680B435360DCE7002018E013
:101EA000002016E0012B16D00E4B5B6803F4803146
:101EB000226A914211D103F47013626A93420ED1E7
:101EC000002006E001207047012002E0012000E030
:101ED000002002B070BD0120FBE70120F9E70120DE
:101EE000F7E700BF00100240000042420F4B5B6862
:101EF00003F00C02082A01D00D487047C3F3834257
:101F00000C49885C13F4803F0BD0084B5B68C3F32B
:101F10004043094AD35C064A02FB00F0B0FBF3F0F1
:101F20007047064B03FB00F0704700BF00100240F3
:101F300000127A00BC960008B896000800093D001F
:101F4000002800F0A08070B50D460446524B1B6877
:101F500003F007038B420BD24F4A136823F00703A9
:101F60000B431360136803F007038B4240F08D802E
:101F7000236813F0020F17D013F0040F04D0474A60
:101F8000536843F4E0635360236813F0080F04D0F0
:101F9000424A536843F460535360404A536823F005
:101FA000F003A1680B435360236813F0010F31D095
:101FB0006368012B20D0022B25D0384A126812F01A
:101FC000020F64D035494A6822F0030213434B6084
:101FD000FFF7AEF80646314B5B6803F00C0362680E
:101FE000B3EB820F16D0FFF7A3F8801B41F28833C2
:101FF0009842F0D9032045E0284A126812F4003FC5
:10200000E0D101203EE0254A126812F0007FD9D1CC
:10201000012037E0204B1B6803F00703AB420AD9CD
:102020001D4A136823F007032B431360136803F062
:102030000703AB422DD1236813F0040F06D0174AD3
:10204000536823F4E063E1680B435360236813F0A3
:10205000080F07D0114A536823F46053216943EAFB
:10206000C1035360FFF742FF0C4B5B68C3F30313DC
:102070000B4AD35CD8400B4B18600B4B1868FFF72A
:1020800013F8002070BD012070470120FAE70120FD
:10209000F8E70120F6E700BF0020024000100240F0
:1020A000A89600080000002008000020014B1868D6
:1020B000704700BF0000002008B5FFF7F7FF044B92
:1020C0005B68C3F30223034AD35CD84008BD00BF5A
:1020D00000100240A096000808B5FFF7E7FF044B88
:1020E0005B68C3F3C223034AD35CD84008BD00BF7A
:1020F00000100240A096000870B582B00446036844
:1021000013F0010F36D03F4BDB6913F0805F4AD1EB
:102110003C4BDA6942F08052DA61DB6903F08053AC
:102120000193019B0125384B1B6813F4807F3CD041
:10213000344B1B6A13F4407313D0626802F440728C
:102140009A420ED02F4A136A23F440702F49012679
:10215000C1F840640026C1F84064106213F0010F1A
:1021600037D1284A136A23F4407361680B43136222
:10217000002D3FD1236813F0020F06D0214A536887
:1021800023F44043A1680B435360236813F0100FFE
:1021900035D01C4A536823F48003E1680B43536035
:1021A000002002B070BD0025BDE7174A136843F454
:1021B00080731360FEF7BCFF0646134B1B6813F4D5
:1021C000807FB5D1FEF7B4FF801B6428F5D90320CA
:1021D000E7E7FEF7ADFF06460A4B1B6A13F0020F56
:1021E000BFD1FEF7A5FF801B41F288339842F3D997
:1021F0000320D6E7D36923F08053D361BAE70020E8
:10220000CFE700BF001002400070004000004242D3
:1022100003681F4A90420AD0B0F1804F07D0A2F560
:102220009432904203D002F58062904203D123F0B1
:1022300070034A681343164A90420AD0B0F1804FA7
:1022400007D0A2F59432904203D002F5806290420A
:1022500003D123F44073CA68134323F080034A690F
:10226000134303608B68C3620B688362084B984218
:102270000AD001234361036913F0010F03D00369FE
:1022800023F00103036170470B690363F1E700BFAB
:10229000002C0140002856D070B50D46044690F839
:1022A0003D30002B4AD0022384F83D3022689368E9
:1022B00023F4804323F007039360214651F8040B75
:1022C000FFF7A6FF21688B688A690E6A28681843A1
:1022D00022F4407222F00302AB68D5F818C043EA3A
:1022E0000C23134323F47C4323F0FC03EA68D5F862
:1022F0001CC042EA0C221A432B6A1B03D5F810C0FB
:1023000043EA0C13134326F022066A686D6942EA19
:1023100005123243886021688B6123681A620123A9
:1023200084F8463084F83E3084F83F3084F84230F8
:1023300084F8433084F83D30002070BD80F83C3094
:10234000FEF7F8FDAFE701207047000090F83C2051
:10235000012A2CD010B40346012280F83C2002222E
:1023600080F83D2002685068946820F0700C08687E
:1023700040EA0C0050601A680E4882420AD0B2F15E
:10238000804F07D0A0F59430824203D000F58060E2
:10239000824204D124F080044968214391600122E3
:1023A00083F83D20002083F83C0010BC70470220D9
:1023B000704700BF002C0140026802F10C0353E893
:1023C000003F23F490730C3242E800310029F3D12E
:1023D000026802F1140353E8003F23F001031432B2
:1023E00042E800310029F3D1036B012B05D02023F3
:1023F00080F84230002303637047026802F10C0347
:1024000053E8003F23F010030C3242E8003100296A
:10241000F3D1ECE710B504460268136923F4405386
:10242000C1680B43136183680269134342691A430D
:102430000168CB6823F4B05323F00C031343CB6043
:102440000268536923F4407381690B435361026846
:10245000134B9A4220D0FFF72FFE024602EB820276
:1024600002EB820263689B00B2FBF3F20D48A0FB13
:1024700002314909642303FB11231B013233A0FB02
:1024800003035B0903F0F00202EB011203F00F03F8
:10249000216813448B6010BDFFF71EFE0246DDE786
:1024A000003801401F85EB512DE9F04383B005460C
:1024B0000E4617469946DDF828802B681C6836EAD8
:1024C00004040CBF01240024BC4228D1B8F1FF3F12
:1024D000F3D0FEF72DFEA0EB0900404523D8B8F15C
:1024E000000F22D02B68DA6812F0040FE5D0802E9E
:1024F000E3D0402EE1D01A6812F0080FDDD000249E
:1025000001941A6801925B680193019B2846FFF7CA
:1025100053FF08236B6485F84040012000E0002051
:1025200003B0BDE8F0830320FAE70320F8E760B3C7
:1025300010B5044690F8413013B3242384F8413099
:102540002268D36823F40053D3602046FFF762FF6C
:102550002268136923F4904313612268536923F0BE
:102560002A0353612268D36843F40053D3600020E8
:102570006064202384F8413084F84230606310BDE9
:1025800080F84030FEF72EFDD7E7012070472DE997
:10259000F04182B01E4690F84130202B56D10446BF
:1025A0000D469046002955D00AB901204FE000237E
:1025B0004364212380F84130FEF7BAFD0746A4F8B2
:1025C0002480A4F82680A368B3F5805F02D04FF082
:1025D000000814E023692BB34FF000080FE020231C
:1025E00084F84130032032E038F8023B2268C3F31C
:1025F00008035360E28C92B2013A92B2E284E38C17
:102600009BB293B100963B46002280212046FFF703
:102610004BFF0028E3D1002DE6D015F8012B2368ED
:102620005A60E7E7A8460025E9E700963B46002206
:1026300040212046FFF738FF18B9202384F84130A5
:1026400005E0202384F84130032000E0022002B09E
:10265000BDE8F0810120FAE700B587B08DF81700DA
:102660004FF480730293012301930DF1170200923E
:10267000002278210248FFF76BF907B05DF804FBF0
:102680001807002010B5C820FEF758FD002405E00B
:10269000044B185DFFF7E0FF0134E4B2162CF7D9C4
:1026A00010BD00BF0C00002000B587B08DF81700EA
:1026B0004FF480730293012301930DF117020092EE
:1026C000402278210248FFF743F907B05DF804FB88
:1026D0001807002038B5002501E00135EDB2072DBF
:1026E00014D8A5F15000C0B2FFF7B6FF0020FFF7E5
:1026F000B3FF1020FFF7B0FF002414F0800FECD1DF
:102700000020FFF7D1FF0134E4B2F6E738BD000046
:102710000FB400B5074A83B004AB106853F8042B1C
:102720008168019300F056FC03B05DF804EB04B03F
:10273000704700BF30000020024A0349034802F0FE
:1027400045BE00BF2400002081570008380000204B
:102750000C4B416810B59942044601D003F010F8C3
:10276000A168094B994202D0204603F009F8E168BC
:10277000064B994204D02046BDE8104003F000B853
:1027800010BD00BF1808002080080020E8080020C5
:102790002DE9F84300250423304C314A3149DFF854
:1027A000C890DFF8C880324F324E116004F15C00EF
:1027B00029460822C4E90335C4E90055C4E9055592
:1027C000A560656600F086F804F15800C4E9074981
:1027D000C4E90987E66200F0F9F8274B2946082288
:1027E00004F1C4006367C4E91A55C4E91E5525679E
:1027F000C4F8CC50C4F8805000F06CF804F16803C1
:1028000004F1C000C4F88430C4E92298C4E92476F5
:1028100000F0DCF8194B294604F596700822C4F83C
:10282000DC30C4E93455C4E93855C4F8D850C4F88C
:102830003451C4F8E85000F04DF804F1D003C4E975
:102840003D87C4F8F09004F59470C4F8FC60C4F8B7
:10285000EC30BDE8F84300F0B9B800BF180800201C
:102860005009002039270008B9590008DD5900082F
:102870001D5A0008415A0008090001001200020018
:1028800010B504460A4800F0A5F8636B23B9094B5C
:10289000094A1B68626323B1BDE81040044800F098
:1028A0009BB8FFF775FFBDE81040014800F094B8F1
:1028B0005C0900205009002051270008014800F061
:1028C00089B800BF5C090020014800F085B800BF4E
:1028D0005C090020830730B546D08446841805E0A3
:1028E000634603F8011B9D0703D09C46A445F7D11E
:1028F00030BD013A0244A2EB0C02032A29D9CCB222
:1029000004EB04240F2A04EB04442FD9A2F1100C89
:102910002CF00F0C03F11005AC44C3E90044C3E9EB
:10292000024410336345F8D112F00C0F02F00F0E81
:1029300018D01A462EF0030C9C44AEF1040542F860
:10294000044B6245FBD125F0030404330EF003026F
:102950002344002ACCD0C9B21A4403F8011B934285
:10296000FBD130BD7246F4E70346C6E79646E0E782
:10297000014B1868704700BF3000002070B50F4B46
:102980000F4DAB42A3EB050607D00024B61055F857
:10299000043B01349847A642F9D806F091FD094D51
:1029A000094B5E1BAB424FEAA60606D0002455F841
:1029B000043B01349847A642F9D870BD1899000825
:1029C000189900081899000820990008704700BF5E
:1029D000704700BF704700BF704700BF20F0030181
:1029E00010F00300C0F1000051F8043B00F1040CAA
:1029F0004FEACC0C6FF000021CBF22FA0CF213431A
:102A00004FF0010C4CEA0C2C4CEA0C4CA3EB0C02E2
:102A100022EA030212EACC1204BF51F8043B04304C
:102A2000F4D0C2F1000102EA0102B2FA82F2C2F16C
:102A30001F0200EBD2007047024B13B1024800F0B6
:102A400005B8704700000000A95D0008002301469A
:102A50001A46184603F02EBA2DE9F04F01F10B0586
:102A6000162D064683B024D8102900F2AE8002F05D
:102A7000A1FC102518234FF0020CC04F3B445C68AA
:102A8000A3F10802944200F05F8130466368E26877
:102A9000A16823F00303CA60234491605A68083494
:102AA00042F001025A6002F08BFC204603B0BDE800
:102AB000F08F35F0070500F18880A94200F285808B
:102AC00002F078FCB5F5FC7FC0F0B1816B0A00F034
:102AD0008380042B00F26E81AB0903F1390C03F102
:102AE000380E4FEACC00A54F384444680838A0425D
:102AF00007D10DE0002AE16880F22081884207D0EA
:102B00000C46636823F003035A1B0F2AF2DDF446D8
:102B1000DFF86C823C69444500F0FD80636823F077
:102B20000309A9EB05030F2B00F38681002BC7E9EE
:102B3000048880F27081B9F5007FD7F804E080F056
:102B40000A8101234FEAD9014FEA5919194403FABE
:102B500009F357F831204EEA030E07EBC103083B97
:102B6000A260E360C7F804E047F83140D460012078
:102B70004FEAAC039840704535D810EA0E0F07D1E4
:102B80002CF0030C400010EA0E0F0CF1040CF9D0ED
:102B900007EBCC0AD646E146DEF80C300BE059686C
:102BA0001C4621F003014A1B0F2ADB6800F30F814A
:102BB000002A80F223819E45F1D109F1010919F023
:102BC000030F0EF1080EE7D160E10C2333600024FF
:102BD000204603B0BDE8F08F4FF400704FF0400C7A
:102BE0004FF03F0E7FE7BC68636823F00309A945F7
:102BF00004D3A9EB05030F2B00F39080614B082051
:102C00001B6803F1100804EB0903009303F0BEF8FE
:102C10005D4A83461368A844013305D008F1FF38A4
:102C20008044434203EA08084146304603F086F8F0
:102C3000B0F1FF3F8246544A00F0198104EB0903CA
:102C4000834200F21281514B0BF1FF3C1868404463
:102C5000186000F068811168013100F0708104EBA8
:102C60000902AAEB020202441A601AF00702CDE937
:102C7000002300F02A81C2F108029244D04408EAFD
:102C80000C015A44521A02EA0C0B5946304603F022
:102C900055F8421C019B00F06F81A0EB0A0000EB8D
:102CA0000B08186848F001025844BC42C7F808A055
:102CB0001860CAF8042017D0B9F10F0F40F2428112
:102CC0004FF0050C6168A9F10C0222F0070201F037
:102CD0000101114361600F2A04EB0201C1E901CC3B
:102CE00000F25281DAF804205446294B19688142D7
:102CF00038BF1860274B1968814238BF186022F02E
:102D00000308A845A8EB050301D30F2B06DC3046CA
:102D100002F056FB5BE7D7F804E028E7621943F0BE
:102D2000010345F0010565603046BA600834536020
:102D300002F046FB204603B0BDE8F08FA2683046A3
:102D4000D16023448A60A9E6DC68A3427FF49DAE8B
:102D50000CF1020CDCE6B9F5206F4FEA59227DD365
:102D6000142A00F2C58002F15C03DB005B32F91823
:102D7000FB580839994212D19EE000BF880100201B
:102D800090010020940900207C01002064090020AB
:102D9000900900208C0900209B68994204D05A6851
:102DA00022F003024A45F7D8D968C4E902318C60A1
:102DB000DC60DCE6142B5DD9542B00F2A2802B0BD7
:102DC00003F16F0C03F16E0E4FEACC008BE6D4F8E2
:102DD00008C03046661945F001056560CCF80C3036
:102DE000C3F808C042F00103C7E90466C6E90288D7
:102DF0007360625002F0E4FA0834E9E621444A685C
:102E0000304642F001024A6054F8082FD3609A60BD
:102E100002F0D6FADCE6A144D9F80430304643F09B
:102E20000103C9F8043002F0CBFA0834D0E64FEAC7
:102E3000D50C05F1080320E6621943F0010145F0C5
:102E4000010565603046C7E90422C2E90288516085
:102E500044F8093002F0B4FA0834B9E64FEA99129E
:102E600002F13903DB00383281E7BC4254D0BC6840
:102E7000626844E703F15C0C03F15B0E4FEACC009F
:102E800031E65AF80839534540F09F801CF0030F93
:102E90000CF1FF3CF5D17B6823EA00037B60400026
:102EA00098423FF6A0AE18B99DE6400009F104092A
:102EB0001842FAD0CC466BE60120921000FA02F2DA
:102EC0004EEA020EC7F804E06FE70AEB080202EAD6
:102ED0000C02ABEB020202EA0C0B5946304602F040
:102EE0002DFF431C019B7FF4D8AEDDF800B0D8E67F
:102EF000542A2BD84FEA193202F16F03DB006E32ED
:102F000035E7B3F5AA7F2BD8EB0B03F1780C03F16F
:102F1000770E4FEACC00E6E52D4B0BF1FF3C18682D
:102F20004044186097E61AEA0C0F7FF494AED7F885
:102F300008A0C84448F00102CAF80420D4E6C2F848
:102F400000A092E60123CAF80430E0E6B2F5AA7FB9
:102F500025D84FEAD93202F17803DB00773206E751
:102F600040F25452934225D8AB0C03F17D0C03F18F
:102F70007C0E4FEACC00B6E5009A4FF0000B083A01
:102F80009044A8EB0A088CE6304604F1080100934F
:102F900004F01AF9009BD7F808A01868A2E640F2DE
:102FA00054539A420DD84FEA994202F17D03DB0057
:102FB0007C32DCE64FF47E704FF07F0C4FF07E0EDB
:102FC00091E54FF47E737E22D1E67B6867E700BF10
:102FD000640900202DE9F04FDBB0164608911C462D
:102FE00083460E9302F068FE036818461793FFF7B6
:102FF000F5FC0822169000212AA8FFF76BFCBBF114
:10300000000F04D0DBF83430002B01F0C781089B9F
:103010005A6EB3F90C30D70740F1BE859D0400F11C
:103020006F87089943F4005322F400528B814A665B
:103030001BB21D0740F18A85089A1269002A00F028
:10304000858503F01A020A2A00F08F8500230024E8
:103050009E46CDE92F33002331AACDE912343746FD
:103060001446CDE91AEE2E92CDF860E0CDF864E07A
:10307000CDF824E0CDF844E03D46874BD3F8E4603A
:1030800002F014FE0DF1A80C03462A46584626A964
:10309000CDF800C0B047002800F0CD83C0F2C38354
:1030A000269B252B01D00544E7E7B5EB070806462C
:1030B00040F0C58300224FF0FF339246079301355D
:1030C0002B788DF88F200A9299460135A9F12003BB
:1030D0005A2B5CD8DFE813F04D025B005B0049021D
:1030E0005B005B005B002C025B005B002301B30113
:1030F0005B00AF010F025B000B02D000D000D000DC
:10310000D000D000D000D000D000D0005B005B0029
:103110005B005B005B005B005B00E2005B00460164
:10312000BF02E200E200E2005B005B005B005B00CC
:1031300007025B005B00B8015B005B005B0076018F
:103140005B0017035B005B000B085B005B005B0030
:103150005B005B005B005B005B00E2005B00460124
:103160003101E200E200E200B50231012D015B0015
:10317000AB025B0071025E0280022D015B007601F2
:103180002B01E0025B005B007D085B002B01B9F1C5
:10319000000F00F06683002301228DF804910C9249
:1031A00041AF8DF88F300B93CDE90623CDE90F3376
:1031B0001493309E1AF08403314600F0F5809DF898
:1031C0008F20FAB14FF000082F980122013001360C
:1031D000626007280DF18F02CDE92F06226000F30F
:1031E000EC840834B8F1000F0CD02F980222013083
:1031F00002366260072824AACDE92F06226000F378
:10320000EA840834802B00F08D83079B0C9AA3EB93
:103210000208B8F1000F00F3CD831AF4807F40F06C
:103220002A830C9B27601E4463602F9B30960133DA
:10323000072B2F9300F3288408341AF0040F05D0CD
:103240000A9B069A9F1A002F00F3D384DDE9093206
:1032500006998A42ACBF9B185B180993002E40F078
:10326000E98300232F930B9B1BB158460B9903F066
:10327000ABFF2F4631ACFFE60022A9F1300315F871
:10328000019B02EB820203EB4202A9F13003092BFE
:10329000F5D90A921AE700BF900500200E9B07336C
:1032A00023F00701F1E80223CDE91223139B1E92BC
:1032B00023F000431F930E914FF0FF32DDE91E0112
:1032C000B14BFDF7F1FB002840F0B686DDE91E01A9
:1032D0004FF0FF32AC4BFDF7C9FB0646002840F02B
:1032E000AB86DDE91201002200232AF0800AFDF7F7
:1032F000B3FB002841F050839DF88F30B9F1470FA0
:10330000CCBFA24FA24F002B41F0C0860322CDE9D3
:103310000F330B930C9207931493069249E70E9B7D
:1033200053F8042B002A0A920E93C0F281802B7866
:10333000CAE62B784AF0200AC6E61AF0200F40F0C1
:1033400025860E9A1AF0100F52F8046B41F0E287AE
:103350001AF0400F0E9201F0158146F3C038434633
:1033600036B289E10E9BB9F1430F03F1040600F078
:1033700074871AF0100F40F070870E9B41AF1B68E6
:103380008DF80431012306930C9300230E96309E92
:10339000CDE90F338DF88F300B93079314931AF008
:1033A000840331467FF40BAF0A9A0698A2EB00081B
:1033B000B8F1000F00F306859DF88F20002A3FF436
:1033C00024AFFFE60023DDF838808DF88F3058F801
:1033D000047B002F00F03087B9F1530F00F0F9871C
:1033E0001AF010030F9340F0F487079B002BC1F2F3
:1033F00044821A4638460F9902F0EAFC9DF88F3055
:103400000B90002801F080860B9ACDF83880D21BF3
:103410000C9222EAE272069213B11346013306932C
:103420000F9B4FF073090793149310930B93C0E60F
:103430000A9B5B420A932B784AF0040A44E62B234A
:103440008DF88F302B783FE61AF0200F4AF01000ED
:1034500000F094850E9B073323F007031A46596842
:1034600052F8083B0E9200228DF88F20079A002A0E
:1034700018DB53EA010220F4906A15D1079A9AB931
:1034800010F001031A46069300F07F8730238DF871
:103490006731079B0C92CDE90F3314930B930DF218
:1034A000671786E620F4806A5AAF03F00702DB084C
:1034B00043EA4173C908303253EA0106384607F837
:1034C000012DF2D11AF001010F9140F06484079AA6
:1034D0005AABDB1B9A42B8BF1A460C930692149162
:1034E00010910B9165E62B784AF0080AECE52B78F1
:1034F0004AF0800AE8E5294611F8019BB9F12A0F44
:1035000001F09286A9F13003092B98BF002201F245
:10351000938411F8019B02EB820203EB4202A9F1B2
:103520003003092BF5D942EAE2730D460793CDE546
:10353000584602F0C1FB436818461993FFF74EFA4C
:103540001B900646584602F0B7FB81682B781A910B
:10355000002E3FF4B9AD00293FF4B6AD0A78002A39
:103560003FF4B2AD4AF4806AAEE52B784AF0010A26
:10357000AAE59DF88F202B78002A7FF4A5AD2022A4
:103580008DF88F20A0E500BFFFFFEF7FEC940008CF
:10359000E89400081AF0200F40F031850E9A1AF0D6
:1035A000100152F8043B41F0A5861AF0400001F0EA
:1035B0000B8050460E929BB255E70E9A1AF0200FE0
:1035C00002F1040300F00985126809991160C91716
:1035D00051602F460E934FE5002647F630030E9AB2
:1035E000079F52F8041BB742ADF890308DF88F60FA
:1035F0000B46C0F2F0852AF0800040F0020A002954
:1036000040F04A87002F01F0368030238DF8673173
:10361000012306974FF078098C4610910E92149171
:103620000C930F910B910DF2671700F0B5BD2B783D
:103630006C2B03BF6B784AF0200A01354AF0100A60
:1036400042E52B78682B03BF6B784AF4007A01358A
:103650004AF0400A38E51AF0200F4AF0100100F055
:10366000D1840E9B8A46073323F007031A465B6812
:1036700052F8086B98460E92002BC0F2CF84079A3E
:10368000002A20DB56EA08032AF0800A1BD1002A10
:1036900000F0A38730231DE01AF0200F00F079849A
:1036A00051460E9B073323F007031A46D3F80480D4
:1036B00000238DF88F30079B52F8086B002B0E9279
:1036C00080F227848A460A2E78F1000337D206F169
:1036D0003003DBB28DF86731079B0DF26717012BC2
:1036E000B8BF0123069301230C939DF88F30002B64
:1036F00001F0A585069B013306930023CDE90F3326
:103700000B93149355E51AF0200F4AF01001C8D11D
:103710000E9B1A1D4FF000080E9B07981B68404532
:103720001E468DF88F80C1F24A8121F0800A002B5D
:1037300000F046840A2E78F100030E92C7D30AF4F3
:103740008063CDE90B5906944FF0000C1C46DDF860
:1037500068905AA926E016EB0803B34843F100032A
:10376000A0FB032020F0030202EB90029B1A4FF013
:10377000CC32B6464546F31A02FB03F2AA4868F17A
:10378000000800FB0822A3FB0063BEF10A0F1344EC
:103790004FEA560675F10005394646EAC3764FEA08
:1037A00053082DD3A04D16EB080343F10003A5FBEE
:1037B000032020F0030202EB90029B1AF31AA3FBF2
:1037C000053268F1000005FB00225B0843EAC27382
:1037D00003EB8303A6EB430330330CF1010C4F1EC4
:1037E00001F8013C002CB6D099F800306345B2D105
:1037F000BCF1FF0FAFD00A2E78F1000381F00481F5
:10380000079A5AABDB1B9A42B8BF1A46069CCDF802
:1038100068900B9DDDF83090CDF844C00C93069273
:103820009DF88F3063E7082200212AA8FFF752F89D
:103830000120054421E4B5EB0708064611D02F9A74
:10384000309B01324344072AC4E9007830932F9219
:1038500000F373810834099B43440993002E7FF4DD
:1038600029AC309B002B40F034870022089B2F921C
:10387000B3F90C30EFE0B9F1650F40F31081DDE9E9
:10388000120100220023FDF7DDF8002800F0FF817F
:10389000012363602F9B654A01330136072B309665
:1038A0002F93226000F389850834259B119A934257
:1038B00080F22A83169B179A1E44C4E900232F9B8B
:1038C00030960133072B2F9300F3AA840834119B01
:1038D0005F1E002F7FF7B1AC102F2F9B41F3418467
:1038E000534932464FF010080E46DDF820901591EE
:1038F00004E00834103F102F40F3BB800133103236
:10390000072BC4E90068CDE92F32F2DD494658465D
:103910002EAA01F025FF002840F09480DDE92F3227
:1039200031ACE7E70A9B069AA3EB0208B8F1000F57
:103930007FF76BACB8F1100F2F9A41F3D582DFF807
:10394000F0C02146304610232E466446089DCDF82F
:1039500054C006E0A8F11008B8F1100F01F10801F9
:1039600018DD01321030072AC1E90043CDE92F20CC
:10397000F0DD294658462EAA01F0F2FE002861D15A
:10398000DDE92F20A8F11008B8F1100F4FF0100357
:1039900031A9E6DC35460C4606460132159B464405
:1039A000072ACDE92F262360C4F8048000F32C8475
:1039B00008342AE41E4BB8F1100F2F9A159324DD1A
:1039C00021461023089C06E0A8F11008B8F1100F5A
:1039D00001F1080118DD013215481036072AC1E946
:1039E0000003CDE92F26EFDD214658462EAA01F02F
:1039F000B7FE38BBDDE92F26A8F11008B8F1100F8B
:103A00004FF0100331A9E6DC0C460132159B464409
:103A1000072ACDE92F262360C4F8048000F36082D2
:103A20000834FFF7FABB00BFCDCCCCCC28950008FA
:103A3000CC960008584608992EAA01F091FE00285D
:103A40003FF40FAC0B9B1BB158460B9903F0BCFB2A
:103A5000089BB3F90C30089A526ED00702D49A052D
:103A600040F175845B0600F1A48009985BB0BDE865
:103A7000F08F1646159A01333E44072B226067608B
:103A8000CDE92F367FF7D8AB584608992EAA01F01A
:103A900067FE0028D6D1309E31ACFFF7CEBB2F9BFE
:103AA000013603F10108119B04F10809012B40F3D1
:103AB000D2810123B8F1070FCDE92F86276063601B
:103AC00000F31284169B08F10108179A1E44B8F1FE
:103AD000070FC9E90023CDE92F8600F3138409F10C
:103AE0000809119B0022DDE912015C1E0023FCF78E
:103AF000A9FF002840F0C98108F1010801372644D8
:103B0000B8F1070FCDE92F86C9F80070C9F8044055
:103B100000F3AE8109F10809189A08F1010316446F
:103B2000C9F80420072B28AACDE92F36C9F80020B0
:103B3000AADC09F10804FFF780BB584608992EAAB1
:103B400001F00EFE002883D131AC84E6089D584672
:103B5000294601F079FF002841F03B83B5F90C308C
:103B600003F01A020A2A7FF471AA0899B1F90E200B
:103B7000002AFFF66BAA4A6ED20702D49B0540F1D9
:103B80009986234632465846089901F0D1FB0990A0
:103B900009985BB0BDE8F08F990568D59F047FF563
:103BA00040AA95047FF545AA089B9B899E0541F193
:103BB0008C834FF0FF33099357E7584608992EAA94
:103BC000159301F0CDFD00287FF43CAF309E159B8E
:103BD00031ACFFF707BB584608992EAA159301F0A0
:103BE000BFFD00287FF42EAF309E159B31ACFFF750
:103BF00009BB102F2F9B41F35881BF4AAA464FF0B3
:103C000010081546DDF82090159204E0103F102FA3
:103C100004F1080415DD01331036072BC4E9005800
:103C2000CDE92F36F2DD494658462EAA01F098FD1F
:103C300000287FF407AFDDE92F36103F102F31AC9D
:103C4000E9DC55460133159A3E44072BC4E90027A9
:103C5000CDE92F367FF7FAAA584608992EAA01F027
:103C60007FFD00287FF4EEAE309EFFF7EFBA089D8F
:103C7000A86DFEF7AFFEB5F90C306A6E98047FF5BB
:103C8000D0A991047FF5D5A9D7078DD591E72599BE
:103C9000002940F34E81DDF83C90119B9945A8BF67
:103CA0009946B9F1000F0ADD2F9B4E440133072BD3
:103CB000C4E9007930962F9300F3C5870834DDF806
:103CC0003C80B9F1000FA8BFA8EB0908B8F1000FBC
:103CD00000F3F3830F9B1AF4806F3B4440F0DF86C0
:103CE000259A11998A4203DB1AF0010F00F0D08463
:103CF000169917980E44C4E900012F9930960131A6
:103D000007292F9101F33B800834119907EB010833
:103D1000A8EB03088F1AB845A8BFB846B8F1000F42
:103D20000BDD23602F9B46440133072BC4F804802E
:103D300030962F9301F385800834B8F1000FA8BFA7
:103D4000A7EB0807002F7FF778AA102F2F9B41F3CE
:103D500008826A4932464FF010080E46DDF820907E
:103D6000159104E00834103F102F7FF782AE013325
:103D70001032072BC4E90068CDE92F32F2DD494645
:103D800058462EAA01F0ECFC00287FF45BAEDDE97A
:103D90002F3231ACE7E7302A00F029823023023895
:103DA000002207F8013C07465AAB1B1A0B920C93F2
:103DB0000799CDE90F229942B8BF1946149206918E
:103DC000FFF7F7B92F9AB8F1100F41F32580DFF80C
:103DD00028C12046CDE9205310266546089CCDF821
:103DE00054C006E0A8F11008B8F1100F00F1080067
:103DF00017DD01321031072AC0E90056CDE92F2125
:103E0000F0DD214658462EAA01F0AAFC00287FF4D6
:103E100019AEDDE92F21A8F11008B8F1100F31A873
:103E2000E7DC0446DDE92053159808EB0106206025
:103E3000501C0728CDE92F06C4F8048000F38F82B8
:103E40009DF88F200834002A6FD1002B3FF4DDA9A4
:103E50001346FFF7CBB91AF0010F7FF42AAE012306
:103E6000B8F1070FCDE92F86276063607FF754AE66
:103E7000584608992EAA01F073FC00287FF4E2ADA1
:103E8000DDE92F860DF1C40946E6119B012B7FF772
:103E900043AE112B41F3F3811849324643461027B4
:103EA0000E46DDF82080159105E009F10809103C67
:103EB000102C40F3508301331032072BC9E90067FF
:103EC000CDE92F32F1DD414658462EAA01F048FCDB
:103ED00000287FF4B7ADDDE92F320DF1C409E6E724
:103EE000584608992EAA01F03BFC00287FF4AAADA1
:103EF000309E31ACFFF791B9DC960008CC960008F3
:103F000090047FF596A854E61AF0010F3FF495A9A6
:103F1000D0E456EA080321F0800A7FF4D4AB079B73
:103F2000002B51D00026FFF7D2BB98460023FFF7A5
:103F30004CB9012363602F9BB04A01330136072B34
:103F400030962F93226000F353860834002940F006
:103F5000E382119A0AF0010313433FF46EA9169B02
:103F6000179A1E44C4E900232F9B30960133072B78
:103F70002F9300F3928404F10802DEE20E9B1A1DD7
:103F80000E9B00211B680E92FFF76DBA5146FFF79A
:103F900068BB0E9A1AF0100852F8043B41F0BD813C
:103FA0001AF0400100F0FA829EB2079B8DF88F80D4
:103FB000002BFFF6BFAB2AF0800A002E7FF4BAABCD
:103FC000079B0E92002BADD1CDE90F330C931493C8
:103FD00006930B935AAFFFF7ECB81AF0100F40F0AE
:103FE00053821AF0400F40F060831AF4007F00F013
:103FF0004B820E9A099912681170FFF7EABA50467F
:10400000FFF728BA0E9B1A1D0E9B8A461E680E9259
:104010004FEAE6784346002BBFF631AB2D238DF8EF
:104020008F30079B764268EB4808002BFFF64BABBE
:104030002AF0800AFFF747BBDDE9120102460B4672
:10404000FCF732FD0646002841F00480B9F1610F0B
:1040500000F06886B9F1410F00F04583079B0133FA
:1040600000F0C887B9F1670F139B4AF4807800F01D
:104070003F87B9F1470F00F03B870B90DDE9121243
:10408000002A1346C0F26F8700231593DDE912233F
:10409000CDE91C23A9F14103252B00F2A582DFE81D
:1040A00013F08107A302A302A3020E045E04A3027D
:1040B000A302A302A302A302A302A302A302A302D8
:1040C000A302A302A302A302A302A302A302A302C8
:1040D000A302A302A302A302A302A302A302A302B8
:1040E000A3028107A302A302A3020E045E044448B4
:1040F0001AF0200600F0E9800E9B073323F0070337
:104100001A465E6852F8083B0E921AF0010200F05F
:10411000BB8053EA060200F0468130228DF89020E1
:1041200000228DF88F20079A8DF89190002AC0F216
:10413000F7802AF4906242F0020A03F00F02825CD8
:104140000AF002011B0943EA06738DF86721320960
:1041500053EA16160DF267170BD003F00F06865DB3
:104160001B0943EA0273120907F8016D53EA0206BC
:10417000F3D1079A5AAB4FF0000CDB1B9A42B8BF41
:104180001A46CDE90FCC0C930692CDF82CC0CDF891
:1041900050C000293FF40DA8DDE92F06069B3146EB
:1041A000023306931AF08403024608D1DDF828E0B2
:1041B000DDF81880AEEB0808B8F1000F07DCBCF1A1
:1041C000000F3FF413A84FF00208FEF7FEBF0223D2
:1041D000F9E50C488CE70E920A4A03F00F071046E7
:1041E00002214FF07809D25D4AF0020AAAE70022C4
:1041F0005AABDB1B0B920C93DAE500BF2895000845
:104200000C950008F8940008584608992EAA01F069
:10421000A7FA00287FF416AC309E31ACFEF7F5BF4C
:10422000584608992EAA01F09BFA00287FF40AACA0
:10423000309E31ACFFF74BBB079B3A46062B28BF9D
:10424000062307970B97CDE90F22B04F0693CDF8C1
:1042500038800C931492FEF7ACBF082200212CA8E2
:10426000FEF738FB0E9A41AF2CAB39465846126820
:1042700001F0EEFD034601330C905BD00C9B23EA6A
:10428000E3730693FFF781B88DF88F20079A002A11
:1042900048DB53EA06022AF4906A7FF44EAF079A8D
:1042A000002A00F0F780012AB8BF012203780692A5
:1042B0008DF86731012200230C92CDE90F330B9367
:1042C0000DF267171493FEF774BF0E9A52F8043B71
:1042D0000E921AF010027FF418AF1AF0400100F0AD
:1042E0004B8116469BB210E7584608992EAA01F05A
:1042F00037FA00287FF4A6ABDDE92F860DF1C4095B
:10430000FFF7E0BB584608992EAA01F029FA0028C9
:104310007FF498ABDDE92F860DF1C409FFF7E1BB0F
:104320004AF0020A03F00F020AF00201825C2AF44A
:10433000806A07E70898B0F90C30426E43F04001FC
:10434000D70781813FF535AC99053FF532AC089C24
:10435000A06DFEF741FBB4F90C30FFF783BB584664
:1043600008992EAA159301F0FBF900287FF46AAB97
:104370009DF88F20309E159B002A00F0968098466D
:1043800031AC03462F98FEF720BF079B5AAFCDE90B
:104390000F330C9314930B93FEF70BBF5846FEF7A5
:1043A0006FFAFEF734BE0021079B8DF88F108B4209
:1043B000C0F218832AF4906A71E7584608992EAA29
:1043C00001F0CEF900287FF43DAB309E31ACFFF711
:1043D0006CBA082200212CA82797FEF77BFA079BCE
:1043E000002BC0F2F082002606940B9534461D4641
:1043F0000FE02CAB584641A901F02AFD431C06F101
:104400000406204400F0EB85A84206DC00F0458657
:104410000446279B9A59002AEBD10C940B9D069CCD
:104420000C9B002B00F0F183632B40F34D85584625
:10443000591CFEF711FB0746002800F064870B901B
:10444000082200212CA8FEF745FA0C9E2CAB009305
:1044500039463346584627AA01F020FD864240F0EF
:104460004C8700230C9ABB5422EAE2719DF88F20FE
:104470000691002A40F02D85CDE90F220792CDF854
:1044800038801492FEF795BE0E9A09991268116051
:10449000FFF79FB8079B97E51D480E9201F00F02AA
:1044A0004FF078090221825C4CE6002B00F0FA8084
:1044B00013462F9831ACFEF799BEB8F1100F2F9B21
:1044C00040F3C3861348224631464FF01009064692
:1044D000089C159006E00832A8F11008B8F1100FFA
:1044E00040F34A8201331031072BC2E90069CDE95C
:1044F0002F31F0DD214658462EAA01F031F900286F
:104500007FF4A0AADDE92F3131AAE5E72095000864
:10451000F8940008CC960008169B179A1E44C4E92C
:1045200000232F9B30960133072B2F9300F3B58187
:1045300004F108020029C0F29384119901330E445A
:10454000072BCDE92F36176051603FF79DAA02F186
:104550000804FEF772BE1646984608F10108159B3E
:104560002644B8F1070FCDE92F86C9F80030C9F805
:1045700004407FF7CFAA7BE41AF400761CBF0E46F6
:10458000DBB2C2E51AF4007F14BF46F3C0184FEA4D
:10459000E678434618BF76B2FFF76EB81AF4007893
:1045A00040F0898007991E4600298DF88F80FFF61C
:1045B000C1A82AF0800A002B7FF4BCA80B460E92FB
:1045C00000297FF4AFACFFE41AF400717DD00146FE
:1045D0000E925046DBB2FEF746BF9DF88F30069232
:1045E0000C925AAFFFF783B8079B584601930223FA
:1045F00000932CAB049327AB039325AB0293DDE927
:104600001C2301F06DFD07461AF0010F40F00F84E6
:10461000259A2C9BD11CA3EB070311930F92C0F298
:10462000BD8307999142C0F25A83934200F34184BB
:104630000F9B0C931AF4806F03D00F9B002B00F399
:104640003285C2464FF067090C9B23EAE373069359
:10465000002314931093159B0AF00201002B00F025
:1046600082814FF02D0C8DF88FC0069B013306938D
:10467000002307938DE5079B4FF078099C460E9227
:10468000109314930C930F9306935AAF0B9383E5F7
:1046900007EB0108A8EB03088F1AB845A8BFB84676
:1046A000FFF74BBB31ACFEF7B0BD0E9A099912680B
:1046B0001180FEF78EBFDEB2079B8846002B8DF877
:1046C0008F10BFF678ACFFF735B850460E92FEF764
:1046D000CABE584608992EAA01F042F800283FF4B5
:1046E000C4A8FFF7B5B945F63003ADF89030079B85
:1046F0004AF0020A632B00F33E84DDE91212002A1D
:10470000C0F24784DDE9120125AA01F013FC002262
:104710004FF07F53FBF72EFF02460B46CDE90C23EB
:1047200000220023FCF78EF908B101232593002312
:10473000B14A1593069241AF0B93079BB846591E99
:1047400007940F95CDF8409014978946DDE90C4504
:10475000069FCDF844A007E000220023FCF772F981
:10476000002840F05384D1460022A44B204629461D
:10477000FBF700FF0D460446FCF7ACF90646FBF7D5
:104780008FFE02460B4620462946FBF73BFDBB5DEC
:10479000B9F1FF3F424604460D4609F1FF3A08F8D9
:1047A000013BD9D1CDE90C45DDE90F59079C944B6C
:1047B00007920022DDF844A0149FFCF76BF940B982
:1047C000DDE90C0100228E4BFCF73CF9E0B1F0076B
:1047D0001AD5079B2C93069B18F8012CD97B4346CE
:1047E000914209D1302003F8010C2C9B5A1E2C92C7
:1047F00013F8012C8A42F6D0392A0BBF069A0132EF
:10480000927AD2B203F8012C259AA8EB07031193F0
:10481000B9F1610F02F1FF33259300F0C4845021F8
:104820004FF04109002B8DF8A010C0F2B2842B226A
:10483000092B8DF8A12000F3C1820DF1A2023033C3
:1048400002F8013B28ABD31A1893119B189A012B3D
:104850001A440C9240F3D5830C9B169A13440C9384
:104860002AF4806343F4807A00230C9ACDE90F3355
:1048700022EAE27214930692EDE63846FEF7AEF8AD
:104880009DF88F3020EAE0720C900692CDF83880C7
:10489000002B3EF4C5ADFEF7C0BD584608992EAAC0
:1048A00000F05EFF00287FF4CDA8DDE92F362599C2
:1048B00031AA3FE6886DFEF78FF8FFF762B9022351
:1048C000079A0132119200932CAB119E049327ABEF
:1048D000039325AB019602935846DDE91C2301F0B2
:1048E000FFFB29F02003462B07460693064400F001
:1048F000B681DDE91C0100220023FCF7A3F80028A3
:1049000040F02B842C9BB34280F0258445220692F4
:1049100030215A1C2C9219702C9BB342F9D3DB1B0B
:104920001193259B0F93069B472B00F0D181069B8B
:10493000462B00F0AC810F9B8DF8A090013B002B23
:104940002593C0F232822B22092B8DF8A12000F38F
:10495000358230228DF8A2200DF1A3026FE7079B6C
:1049600011930323AFE79DF88FC0BCF1000F7FF4D4
:104970007CAE159B07930CE414460E460133159A42
:104980004644072BCDE92F362260C4F8048000F39B
:10499000CF820834FFF79EB92D238DF88F30032383
:1049A0000C930423B9F1470F0B96069340F338821A
:1049B000CDE90F66134F07961496FEF7FABB8A46A9
:1049C0000E92FEF780BE2CAB00930023584619468A
:1049D00027AA01F063FA034601330C9000F0FF822E
:1049E00027971DE503782AF4806A8DF867310DF268
:1049F0006717FFF7BEBB00BF0C95000800003040F2
:104A00000000E03FEC9400081B9A1999BD1A284653
:104A100001F016F999F801300BB109F101094FF0D5
:104A2000CC314FF0010CB64A16EB080343F10003FA
:104A3000A2FB030E2EF0030000EB9E001B1AF31ADC
:104A400003FB01F168F10008A3FB023002FB08112F
:104A500023FA0CF3014443EAC17621FA0CF816EB71
:104A6000080343F10003A2FB031020F0030101EB54
:104A700090015B1AF31AA3FB023168F1000002FBFC
:104A8000001223FA0CF343EAC27303EB8303A6EB91
:104A9000430330336F1E05F8013CFEF7A5BE119AA3
:104AA0003146BA18079222461C46109BDDF850800A
:104AB000002BCDF854A0DDF868901B9EDDF820A0F7
:104AC0000F9514972EDDB8F1000F7EDD08F1FF3849
:104AD0002F98199B013031440728C2E900363091E4
:104AE0002F9067DC0832079B99F800001F1B874254
:104AF000A8BF0746002F0BDD2F9839440130072847
:104B0000C2E9004730912F9065DC99F80000083227
:104B1000002FB4BF0546C51B002D16DC0444109BB6
:104B2000002BD0DCB8F1000FD0DC2346149F1446D4
:104B3000119A0E46BA18934228BF13460F9DDDF80E
:104B400054A0CDF86890FFF7CBB8102D2F986D4B7F
:104B500023DD0C9410272C461D4604E0103C102C3D
:104B600002F1080216DD0130664B10310728C2E958
:104B70000037CDE92F01F1DD514658462EAA00F04D
:104B8000EFFD00287EF45EAFDDE92F01103C102C14
:104B900031AAE8DC2B4625460C9C01302944072825
:104BA000CDE92F01136055603FDC99F80000083211
:104BB0000444B4E7514658462EAA00F0D1FD00281F
:104BC0007EF440AF309931AA8DE7109B09F1FF398F
:104BD000013B10937CE7514658462EAA00F0C0FDD9
:104BE00000287EF42FAF99F80000309931AA8FE7A2
:104BF000584608992EAA00F0B3FD00287EF422AF93
:104C00002599309E31ACFFF7A1B99DF88F30CDF8D2
:104C10003880003B18BF012306930C9BCDE90F336E
:104C2000079314930B93FEF7C4BA514658462EAA25
:104C300000F096FD00287EF405AF99F80000309949
:104C400031AA04446BE7584608992EAA00F088FD63
:104C500000287EF4F7AE309E31ACFFF730B83B78D9
:104C6000302B00F06082259B1E440022DDE91C01F0
:104C70000023FBF7E7FE20BB2C9BB342FFF448AEBA
:104C8000DB1B1193259B0F93069B472B20D00F997D
:104C9000079A0AF00103002943EA020340F3D9828C
:104CA000002B40F02A824FF066090F9B0C931AF4F8
:104CB000806F40F0FA810C9BC24623EAE3730693AF
:104CC000C6E4259B0F93F31B1193069B472BDED164
:104CD0000F9B033362DB079B0F9A934214DA0F9BFF
:104CE000A9F10209013B002B8DF8A0902593BFF696
:104CF0002AAE2D220F9B8DF8A120C3F1010328E6D7
:104D0000CDCCCCCCCC960008119B0F9A934200F3EB
:104D1000D0801AF0010F0F9B00F05882169A1344AE
:104D20000C9387E447F63003ADF89030079B4AF0C8
:104D3000020A632B00F31F81DDE91212002AC0F280
:104D40002881DDE9120125AA01F0F4F800224FF0D4
:104D50007F53FBF70FFC02460B46CDE90C230023E3
:104D60000022FBF76FFE0346002800F00B820123B0
:104D7000159625930B9641AFB04B0693DDE458464C
:104D800008992EAA079300F0EBFC00287EF45AAE97
:104D9000259A309E079B31ACFEF7B7BF0F9BA9F158
:104DA0000209013B8DF8A09025932D220F9B8DF8D1
:104DB000A120C3F10103092B7FF7CBAD0DF1B70C97
:104DC0006246DFF87CE21E461046AEFB0321C908AE
:104DD00001EB8102A3EB42023032632E00F8012C7A
:104DE0000B4600F1FF32EEDC303302F8013C831E4B
:104DF000634580F048820DF1A10213F8011B634561
:104E000002F8011FF9D103F5B4736B44C43B1B1ABC
:104E100028AA9B1A189318E58A481590FFF704B83A
:104E2000CDE90F66884F07961496FEF7C2B947235F
:104E30000693079BFE1818E700230D460793FEF71D
:104E400045B9584608992EAA00F08AFC00287EF43D
:104E5000F9AD259F119B309E31ACDF1BFEF76DBF76
:104E6000C1F10008103180F22D82784831461024BB
:104E70000646159005E00832A8F11008B8F1100FA9
:104E800062DD01331031072BC2E90064CDE92F3117
:104E9000F1DD584608992EAA00F062FC00287EF445
:104EA000D1ADDDE92F3131AAE6E7664A1592FEF76A
:104EB000C9BE119B169A9A180F9B0C92002B40F3B7
:104EC0003E814FF06709F2E6002341AF0B93FFF7F5
:104ED000B7BA069ACDE90F3301320793CDF838807F
:104EE00006921493FEF765B9584B1593FEF755BD1E
:104EF000079A002A00F07B81002BC0F2C881DDE90F
:104F00001223CDE91C231596079B584601930223D3
:104F100000932CAB049327AB039325AB0293DDE9FD
:104F20001C2301F0DDF8002307460B93FFF76CBB51
:104F3000584608992EAA00F013FC00287EF482AD92
:104F4000309E31ACFEF7C6BE0E460133159946447D
:104F5000072BCDE92F361160C2F8048000F30581DC
:104F60000832FFF7EABA1C912D2103F10043159195
:104F70001D93FFF78FB8079B5846591CFDF76CFD32
:104F8000074600283FF4D6A90B904AF48078FFF733
:104F900075B813461C912D2103F100430B96159112
:104FA00041AF1D9325AADDE91C0100F0C3FF0022DB
:104FB0004FF07F53FBF7DEFA02460B46CDE90C2398
:104FC00000220023FBF73EFD08B101232593B9F130
:104FD000610F3FF4D1AE1E4B0693FFF7AEBB00222C
:104FE000089B0B92B3F90C3043F04003089A93816D
:104FF000FEF728BD06230B9007934AF48078FFF74D
:105000003DB81AF0010F3FF42BAC25E44946DDE929
:10501000109A0029079C0F9D149FFFF6F5AB42469E
:1050200030204B1C434402F8010B9A42FBD108EBA1
:10503000010303F10108FFF7E7BB00BFF894000884
:10504000CDCCCCCCDC960008E8940008CC960008C7
:105050000C950008139B2AF0800A13F000430F936D
:1050600000F0D0802D2303228DF88F300023CDE96E
:105070000B320422B9F1470F069240F31181CDE9BA
:105080000F33A74F07931493FEF793B8032200231F
:10509000CDE90B320422FEF787B8079B069C0B9DD7
:1050A0000C93FFF7BDB94FF067091A990B78FF2BE6
:1050B00000F01C8100260F9A304603E001300131D8
:1050C000FF2B08D0934206DAD21A4B78002BF5D189
:1050D0000B780136F4E7CDE90F201A911496109A57
:1050E000149B1B9913440C9AC24601FB03230C9397
:1050F00023EAE3730693FFF7AEBA169B0A44D3186C
:105100004FF066090C93D2E5CDF83880002B4DD0D6
:10511000079B4FF073090C9301330693079014908B
:105120001090FEF746B80022DDE91C010023FBF7D2
:1051300089FC002845D0259B0F931E44C3E5C3F18D
:1051400001031A4422EAE273C2464FF067090C9247
:105150000693FFF77DBADB1B1193259B0F93FFF797
:10516000EABB704A1592FEF785BC584608992EAAEC
:1051700000F0F6FA00287EF465ACDDE92F3631AA9E
:10518000FFF7DBB9684A1593069241AF0B93FFF71F
:10519000D4BAC2F101032D22092B8DF8A1203FF7CB
:1051A0000DAEFFF74ABB7021FFF73CBB079B4FF0EA
:1051B00073090C9306930B9B149310930793FDF7BD
:1051C000F8BF119BC3F1010325934DE50C93FFF745
:1051D00031BA089A536ED8073EF5EBAC938999051E
:1051E0003EF5E7AC906DFDF7F7FBFEF7E2BC002B58
:1051F0005DDB079B159301230793DDE91223CDE9BE
:105200001C2381E69DF88F30B9F1470FCCBF444F86
:10521000464F002B5FD1032207930C9214931093F7
:105220000B930692FDF7C5BF0E9A6B780D4652F8A8
:10523000041B0E9241EAE1720792FDF745BFCDE9EA
:105240000F330B931493FDF7B4BF364A1592FFF753
:1052500095BBC24633B901234FF0660906930C9300
:10526000FFF7F6B9169B03F10109079B4B440C931A
:1052700023EAE3734FF066090693FFF7E9B9294B78
:105280001593FFF76AB902231893FFF7DEBA2D21B1
:10529000DDE9122303F100431C9215911D9333E6BF
:1052A000CDE90F33214F07931493FDF782BF2D21D2
:1052B000DDE912231591012103F100431C920791AE
:1052C0001D9321E6174915913FE6089B986DFDF760
:1052D00083FBFEF76EBC032200230C92042207938B
:1052E0000692149310930B93FDF763BF002314935E
:1052F0001093F4E65046FEF743BE089BB3F90C301A
:1053000043F0400372E6089B0B90B3F90C3043F076
:1053100040036BE65146FEF777BE5146FEF7FAB9F9
:10532000F4940008CC960008F8940008F094000863
:105330002DE9F0414FF480650027ADF58D6D1AAE73
:10534000CDE90557984607460096049616468B8980
:1053500016A823F00203ADF80C304B6E029519939A
:10536000CB890D46ADF80E30CB696C4607934B6A7E
:105370000993FDF72BFB3246434669463846FDF755
:1053800029FE061E07DB6946384600F0EBFA0028C6
:1053900018BF4FF0FF36A3895B0603D5AB8943F0F6
:1053A0004003AB81A06DFDF713FB30460DF58D6D0D
:1053B000BDE8F0810148FDF70DBB00BF5409002096
:1053C0000148FDF709BB00BF540900202DE9F8434F
:1053D0004FF0000980460F461646D6E90154013DBC
:1053E00010D4A389012B08D9B4F90E30013304D0AD
:1053F00021464046B84749EA0009013D6B1C04F1CB
:105400006804EED13668002EE7D14846BDE8F8833F
:105410002DE9F84F1646002900F098800C4680468A
:1054200006F10B05FFF7C6FF54F8041C162DA4F176
:10543000080921F0030758D81025AE4258D8AF42CA
:1054400062DAC04B09EB070C9A68DCF8040062458D
:1054500000F0928020F0010363445B68DB076AD4AC
:1054600020F003003B189D4249DDCB0712D454F8CD
:10547000083CA9EB030BDBF8043023F003021044D3
:1054800000EB070A554540F3F88007EB020A554543
:1054900040F3CE8031464046FDF7DEFA064600284E
:1054A00000F0238154F8043CA0F1080223F001032A
:1054B0004B44934200F0B6803A1F242A00F2D98070
:1054C000132A00F2A480034622461168196051682D
:1054D000596092689A602146404601F075FE404648
:1054E000FFF76EFF3046BDE8F88F35F00705A4D50D
:1054F0000C23C8F8003000263046BDE8F88F1F4660
:10550000DCE90223D3609A60D9F804307A1B0F2AB1
:1055100003F0010309EB07001DD83B43C9F8043031
:10552000436843F0010343604046FFF749FF2646C6
:105530003046BDE8F88FC907ACD454F8083CA9EB55
:10554000030BDBF8043023F003029EE71146BDE8AD
:10555000F84FFDF781BA2B4309EB050142F0010238
:10556000C9F804304A604368083143F001034360DE
:10557000404601F029FED7E720F00300C21905F1EB
:10558000100C624580F29280CA0783D454F8082C2C
:10559000A9EB020BDBF8042022F00302104400EB1D
:1055A000070AD4453FF771AF5E46DBF80C1056F89A
:1055B000080F3A1F242AC160886000F2B080132AC5
:1055C00040F2AB8021681B2ACBF808106168CBF849
:1055D0000C1000F2AA8008340BF11002216811604F
:1055E00061685160A1689160AAEB05020BEB0501AF
:1055F00042F0010299604A60DBF80430404603F053
:1056000001032B43CBF80430FFF7DAFE90E7236861
:105610001B2A0360636843603DD804F1080200F16F
:10562000080352E750F8043C23F003031F446BE7E0
:105630005E463A1FDBF80C3056F8081F242ACB6070
:10564000996023D8132A1FD923681B2ACBF8083066
:105650006368CBF80C303CD808340BF11003226897
:105660001A6062685A60A2689A6034465746D94602
:105670004AE7214600F066FA2DE7DCE902135E46B0
:10568000CB603A1F9960D5E73346E8E721463046BC
:1056900000F058FAE9E7A368242A8360E368C3604E
:1056A00027D004F1100200F110030EE7521B09EBA2
:1056B000050142F0010299604A6054F8043C4046FA
:1056C00003F001032B4344F8043CFFF779FE264620
:1056D0002EE7A368242ACBF81030E368CBF8143007
:1056E00010D010340BF11803B9E74046FFF768FEFD
:1056F00001E7236904F1180203616369436100F162
:105700001803E2E623691834CBF8183054F8043C47
:10571000CBF81C300BF12003A1E732465EE72146AF
:10572000304600F00FFA074B5EE7A168242ACBF859
:105730001010E168CBF8141006D010340BF11802E9
:105740004CE700BF8801002022691834CBF81820EC
:1057500054F8042CCBF81C200BF120023EE700BFCC
:10576000936810B514461BB918460023636010BD3A
:1057700001F034FE0023A3600023636010BD00BF6E
:1057800070B500293FD006460C4610B1436B002B84
:105790003CD0636EB4F90C20DD0732D4900538D5C7
:1057A0002146304600F04CF8E36A054633B13046F6
:1057B000E16998470028B8BF4FF0FF35A3891A0662
:1057C00039D4216B41B104F14003994202D03046F3
:1057D00001F0FAFC00232363616C21B1304601F033
:1057E000F3FC00236364FDF769F80022636EA28175
:1057F000DB071CD5A06DFDF7EBF8FDF765F8284633
:1058000070BD002ACCD10025284670BDFDF738F8C0
:10581000BFE7A06DFDF7DEF8B4F90C30002BBFD167
:10582000636ED907EFD4A06DFDF7D6F8EBE7A06D56
:10583000FDF7D2F8DEE73046216901F0C5FCC0E78C
:10584000B1F90C20F8B513070C46074648D449684F
:1058500042F400630029A3815FDDA66A002E3DD0DB
:10586000002112F480523D68396062D1012338462C
:10587000E169B047461C024668D0B4F90C30A66A0C
:10588000580705D56368D21A236B0BB1E36BD21AA4
:105890000023E1693846B047411CB4F90C304AD1C5
:1058A00039681D293FD82E4ACA40D2073BD500226D
:1058B00062602269DE04226023F40062A28101D5C5
:1058C000002941D0216B3D6041B104F14003994270
:1058D00002D0384601F078FC002323630020F8BD95
:1058E0000E69002EFAD0920718BF00230D6808BF7A
:1058F0004B690E60AD1B8B600CE02B463246D4F832
:1059000024C03846E169E047B0F1000CA5EB0C0576
:10591000664406DD002DF0DCE0E7E16B00299CDC4D
:10592000DCE7B4F90C3043F040034FF0FF30A381C3
:10593000F8BD226DA4E7002262602269226023F490
:105940000062DB04A281BDD52065BBE73B68002B6C
:1059500093D01D2B01D0162BE3D13D60BEE700BFD5
:105960000100402038B505460C4608B1436B03B32F
:10597000B4F90C0088B1636EDB0701D481050FD543
:1059800028462146FFF75CFF636E0546DA0702D41E
:10599000A3899B0508D5284638BD0546284638BD4D
:1059A000A06DFDF717F8EBE7A06DFDF715F8284699
:1059B00038BDFCF765FFDBE710B50C46B1F90E10FA
:1059C00000F0A6F9002803DB236D0344236510BD16
:1059D000A38923F48053A38110BD00BF2DE9F041BA
:1059E0000C46B1F90C101F46CB05054616460BD4E4
:1059F00021F48051A1813B4632462846B4F90E106D
:105A0000BDE8F04100F0ACB9B4F90E100223002259
:105A100000F068F9B4F90C10EAE700BF10B50C46C5
:105A2000B1F90E1000F05EF9B4F90C30421C0EBF53
:105A300023F4805343F480532065A38110BD00BF3D
:105A4000B1F90E1000F03CB938B53D4B05461B6866
:105A50000C4613B15A6B002A5AD0B4F90C3019070E
:105A60000BD522699AB113F0010221D19B0756BFD1
:105A70006369A260A360002038BDDA0658D55807D4
:105A80001CD4226943F00803A381002AEBD19905B5
:105A900028D5180603F0800124D4D80741D49D07E7
:105AA0003CD5A2600029E6D043F04003A38144E046
:105AB00000226369A2605B42A361DCE7216B51B104
:105AC00004F14002914204D0284601F07DFBB4F974
:105AD0000C30002222630021226923F02403C4E950
