:020000040800F2
:10000000005000200D170008990A00089B0A0008FC
:100010009D0A00089F0A0008A10A000800000000CD
:10002000000000000000000000000000A30A00081B
:10003000A50A000800000000A70A0008A90A000895
:1000400055170008551700085517000855170008E0
:1000500055170008551700085517000855170008D0
:1000600055170008551700085517000855170008C0
:1000700055170008551700085517000855170008B0
:1000800055170008551700085517000855170008A0
:100090005517000855170008551700085517000890
:1000A0005517000855170008551700085517000880
:1000B0005517000855170008551700085517000870
:1000C0005517000855170008551700085517000860
:1000D0005517000855170008551700085517000850
:1000E00055170008551700085517000800000000B4
:1000F0000000000000000000000000000000000000
:0C01000000000000000000005FF808F1A3
:10010C002DE9F74F00224FF00F0E1646DFF86CC1A9
:10011C005B4B00F104080D6835FA06F402D103B00C
:10012C00BDE8F08F012404FA06F705EA070437EA64
:10013C0005056ED14D68032D06D8013D022D7BD8E7
:10014C00DFE805F08B909600122D00F08E8062D8BF
:10015C00112D00F08480FF2C94BF8146C1464FEADC
:10016C008605D9F8007088BF203D0EFA05FA27EAFB
:10017C000A0702FA05F52F43C9F80070D1F804906C
:10018C0019F0805F45D0DCF8185026F0030745F0D5
:10019C000105CCF81850DCF8185007F1804705F031
:1001AC000105019507F5803706F0030A019D4FEA1A
:1001BC008A0ABD680EFA0AFB25EA0B0B314DA842E0
:1001CC005AD005F58065A84214BF0425012505FA0F
:1001DC000AF545EA0B05BD609D6819F4801F14BF34
:1001EC002543A5439D60DD6819F4001F14BF25430A
:1001FC00A543DD605D6819F4003F14BF2543A5439A
:10020C005D601D6819F4803F14BF2C4325EA04047B
:10021C001C6001367FE7DFF870904D450CD015D887
:10022C00A9F580194D4507D009F570294D4503D026
:10023C00A9F580194D458ED18A68DAB1012A08BF1B
:10024C0007614FF0080218BF476184E7DFF83C9064
:10025C004D45F1D009F58039ECE7CA687BE7CA68EF
:10026C00043278E7CA68083275E7CA680C3272E75C
:10027C00002270E704226EE70025A8E70010024078
:10028C000004014000080140000022100000311061
:10029C00094A106853685968890605D55A680020C0
:1002AC0042F010025A6070471168091AB1F57A7F52
:1002BC00F1D90320704700BF10010020094A536890
:1002CC00596821F01001596010685968890601D5E8
:1002DC00002070471168091AB1F57A7FF5D903200F
:1002EC00704700BF1001002010B5174B99694A697F
:1002FC0012F0800201D0002025E04C69640511D475
:10030C001A68121AB2F5807FF1D94A6912F080028C
:10031C00EDD120219A6483F8551083F856209A6DFC
:10032C000A430BE06FF48060486120219A6483F8E3
:10033C00551083F856209A6D42F004029A650022FB
:10034C00012083F8542010BD100100204FF47A7264
:10035C00174930B50B68B3FBF2F3013BB3F1807F67
:10036C0024D24FF0E024F0226361124B072583F86E
:10037C00232000220F28A261256117D8DB68C3F364
:10038C000223EC1A042C03F1040528BF0424062DC7
:10039C0088BFDA1E4FF0FF33A34020EA03039340DB
:1003AC001B01044ADBB282F82330486030BD00BF29
:1003BC000000002000ED00E070B5254B0C4693F8D2
:1003CC00AD1020291ED1ECB100212125C3F8B010AD
:1003DC0083F8AD501E68A3F89040A3F892405C6F70
:1003EC00B4F5805F03D1DC6F0CB901462046DC6E9E
:1003FC00B3F89250ADB275B9216849061ED52022CA
:10040C0083F8AD2070BD551C05D01D68AD1BB5F52E
:10041C00803FF4D2E56825682D06F4D558B931F83B
:10042C00025BC5F308056560B3F89250013DADB2AF
:10043C00A3F89250DCE710F8015BF4E7501CDBD01A
:10044C001968891BB1F5803FD9D2E168D4E700BFA8
:10045C001001002073B58A4C0646256894F8553077
:10046C00202B77D1A3699A69920745D494F854202C
:10047C00012A6FD0012284F854201A68D0075EBF7D
:10048C001A6842F001021A601A6822F400621A60BB
:10049C00212284F85520402284F856200022A2659F
:1004AC000122A4F84220B4F84220E163A4F84020D1
:1004BC00744A62641A6842F480721A605A69D007EE
:1004CC0030D578221A615A69D24312F0020247D110
:1004DC0001925A69284601929B690193019BFFF78F
:1004EC0003FF00285ED0A36D042B33D1A2691368DF
:1004FC0043F4007313602DE02268521B192AB2D901
:10050C009A69D24312F00202ADD12023A26484F87E
:10051C00553084F85620A36D84F8542043F0200302
:10052C00A36517E02268521BB2F5807FC6D95A69C1
:10053C00D207C3D400222021A26484F8551084F879
:10054C005620A16D84F8542041F02001A1651B6850
:10055C00DD0501D402B070BD4FF40073A365F9E75B
:10056C005A6912F4806214D01A6842F400721A604C
:10057C006FF480625A6100232022A36484F8552012
:10058C0084F85630A26D42F00402A26584F854300F
:10059C00E0E72168491BB1F5807F94D95969890737
:1005AC0091D4B2E7A3691E61B4F840307BB9A3695A
:1005BC005A6912F0040235D01A6842F400721A60BB
:1005CC00202384F85530002384F85630DEE7284683
:1005DC00FFF78AFE002886D1E36BA6691A4612F84B
:1005EC00011B3161E263B4F84220B4F84010013AC7
:1005FC0092B2A4F842207269481E80B25207A4F845
:10060C004000D1D50028CFD05A7802333261E36351
:10061C00B4F842300239013B9BB2A4F84010A4F864
:10062C004230C1E75969490517D56FF480615961AA
:10063C002021A26484F8551084F85620A26D42F053
:10064C000402A265002284F85420A26D042A02BF81
:10065C001A6842F400721A607CE72268521BB2F5E9
:10066C00807FA5D95A6912F00402A1D12021A2647D
:10067C0084F8551084F85620A26D0A43E1E700BFB8
:10068C00100100200000FFFF07B58DF807000DF1E9
:10069C0007010020FFF7DEFE03B05DF804FB38B560
:1006AC00084A116813685B1AC82BFBD90024064D45
:1006BC00013415F8010BE4B2FFF7E6FF172CF7D164
:1006CC0038BD00BF100100204C44000810B5044692
:1006DC00A1F15000C0B2FFF7D7FF200940F0100085
:1006EC00FFF7D2FF04F00F00BDE81040CCE707B5D0
:1006FC008DF807000DF107014020FFF7ABFE03B0AA
:10070C005DF804FB38B5B0242046FFF7BDFF002090
:10071C00FFF7BAFF1020FFF7B7FF80250020013D3F
:10072C00FFF7E5FF15F0FF05F8D10134E4B2B82C62
:10073C00EAD138BD2DE9F74F0027064690463D46D5
:10074C00DFF890A00191019AFBB2D45C14B903B00C
:10075C00BDE8F08F31462846FFF7B8FF4FF000098F
:10076C00203CE4B24FEA041B0AEB041414F8010B0E
:10077C00B8F1000F01D0C043C0B2FFF7B8FF09F1C8
:10078C0001035FFA83F9B9F1080FEFD1741CE4B2DD
:10079C0021462846FFF79AFF4FF000090BF1070B93
:1007AC00D3441BF8010FB8F1000F01D0C043C0B205
:1007BC00FFF79DFF09F101035FFA83F9B9F1080F07
:1007CC00EFD10835EDB2782D94BF3446002526467E
:1007DC000137B8E76344000807B5012200202A4915
:1007EC00FFF7A8FF6B46294A1068516803C3684697
:1007FC0000F0C8F94FF0FF3281B26846FFF7DCFD1C
:10080C00234B93F8B420012A0DD193F8B520052A77
:10081C0009D8DFE802F0030B141D262FD3F8CC20E7
:10082C000132C3F8CC2003B05DF804FBD3F8C82028
:10083C0001320B2AC8BF0022C3F8C820F3E7D3F853
:10084C00C42001321F2AC8BF0122C3F8C420EAE722
:10085C00D3F8C0200132172AC8BF0022C3F8C02029
:10086C00E1E7D3F8BC2001323B2AC8BF0022C3F811
:10087C00BC20D8E7D3F8B82001323B2AC8BF0022ED
:10088C00C3F8B820CFE700BFCC4B0008D04B000812
:10089C00100100201FB5012200202A49FFF74AFF52
:1008AC00294A01AB10685168127A03C301A81A7067
:1008BC0000F068F94FF0FF3281B201A8FFF77CFD20
:1008CC00224B93F8B420012A10D193F8B520052AB5
:1008DC000CD8DFE802F0030E161E262ED3F8CC201F
:1008EC00013A452AD8BF4622C3F8CC2005B05DF8A2
:1008FC0004FBD3F8C820013A48BF0B22C3F8C82028
:10090C00F4E7D3F8C420013A48BF1F22C3F8C4202F
:10091C00ECE7D3F8C020013A48BF1722C3F8C02037
:10092C00E4E7D3F8BC20013A48BF3B22C3F8BC2013
:10093C00DCE7D3F8B820013A48BF3B22C3F8B82013
:10094C00D4E700BFD84B0008DC4B00081001002096
:10095C0010B5D0E90432C1688AB004460091013365
:10096C00134902F26C7202A800F0F0FE002202A9F8
:10097C001046FFF7DFFE23680E490093D4E90132DD
:10098C0002A800F0E3FE02A900220220FFF7D2FE2B
:10099C000A22A369084C02FB0344204600F0F2F83B
:1009AC00002221460420FFF7C5FE0AB010BD00BF8F
:1009BC00E54B0008F24B0008080000200C4B37B543
:1009CC005A689169D36990698DB284B2A54217BFF8
:1009DC00D3699BB29BB243EA004308BF43EA01438D
:1009EC00009300236846019300F09EFF03B030BDD6
:1009FC001001002010B501F02FF90446FFF748FC58
:100A0C0040B9054B220C5B68A4B29A61DC61BDE86D
:100A1C00104053E410BD00BF10010020F7B56B4629
:100A2C00184A194E1068516803C3684600F0AAF8BA
:100A3C004FF0FF3281B26846FFF7BEFC96F8B470F7
:100A4C008FB9FFF7BBFF044606F1B8050FCC0FC5F5
:100A5C000FCC0FC5236886F8B5702B60012386F880
:100A6C00B43003B0F0BD96F8B530052B05D106F1C6
:100A7C00B800FFF7BFFF0023F1E7013386F8B5306C
:100A8C00EFE700BF014C000810010020FEE7FEE775
:100A9C00FEE7FEE7FEE7704770477047024A1368AF
:100AAC0001331360704700BF100100200120704714
:100ABC0008B501F089FA162303604FF0FF3008BD2A
:100ACC0008B501F081FA16230360FEE770B50D46F8
:100ADC0014460E46731B9C4201DC204670BDAFF3DE
:100AEC00008006F8010BF5E773B50D4614460E466B
:100AFC00731B9C4202DC204602B070BD16F8013B11
:100B0C004FF6FF72012101A80193FFF755FCEFE7A7
:100B1C004FF0FF3070474FF4005300204B6070478C
:100B2C0001207047002070470C4A0346D2F8380168
:100B3C0010B510B90A48C2F838010A490A4C0344E6
:100B4C00091B8B4206D901F03FFA0C2303604FF0CE
:100B5C00FF3010BDC2F83831FBE700BF1001002098
:100B6C00E00300200050002000040000704700BF8C
:100B7C0010F8012B11F8013B012A28BF9A42F7D03B
:100B8C00D01A7047034613F8012B002AFBD1181A10
:100B9C00013870477BB972B90029BEBF00204FF0F5
:100BAC00004106E008BF00281CBF6FF000414FF069
:100BBC00FF3000F03FB8ADF1080C6DE904CE002910
:100BCC0009DB002B1ADB03F0B5FADDF804E0DDE9F4
:100BDC00022304B07047404261EB4101002B1BDB48
:100BEC0003F0A8FADDF804E0DDE9022304B040428A
:100BFC0061EB4101524263EB43037047524263EB9A
:100C0C00430303F097FADDF804E0DDE9022304B0B6
:100C1C00404261EB41017047524263EB430303F0E6
:100C2C0089FADDF804E0DDE9022304B0524263EBFB
:100C3C0043037047704700BF0348044B834202D004
:100C4C00034B03B11847704710010020100100201E
:100C5C00000000000548064B1B1AD90F01EBA3013D
:100C6C00491002D0034B03B1184770471001002004
:100C7C00100100200000000010B5064C237843B989
:100C8C00FFF7DAFF044B13B10448AFF300800123E4
:100C9C00237010BD500200200000000034440008F6
:100CAC0008B5054B1BB105490548AFF30080BDE8FD
:100CBC000840FFF7CFBF00BF000000005402002027
:100CCC003444000880B5674A6749136898B043F00C
:100CDC0010031360CA68654B22F4E0621204120C14
:100CEC00634D1343CB600F20FFF730FBAB69614AB8
:100CFC0043F00103AB61AB695F4C03F00103059357
:100D0C00059BEB6943F08053EB61EB6903F0805377
:100D1C000493049B536823F0E06343F00073536027
:100D2C006B6803F00C03042B07D06B6803F00C0307
:100D3C00082B56D16B68DE0353D52B68EB69D900B1
:100D4C005DD40121EB6943F08053EB61EB6903F057
:100D5C0080530693069B494B1A68D20551D541F234
:100D6C0088302B6A43F001032B6222682B6A9E07A2
:100D7C0054D519B1EB6923F08053EB616B6803F028
:100D8C000C03082B59D000223D4B1A6622682B68A5
:100D9C00990148D401226B6823F400336B606B68B3
:100DAC0023F4741343F4E8136B60354B1A66226812
:100DBC002B689B013CD52B4A136813F0060F45D0CA
:100DCC006B6843F4E0636B606B6843F460536B6077
:100DDC006B6823F0F0036B602B689E0152D472B6E3
:100DEC00FEE72B6843F480332B6022682B68980352
:100DFC00A4D423689B1A642BF8D972B6FEE70021A1
:100E0C00A9E71A6842F480721A6020681A68D7053C
:100E1C00A5D42268121A642AF8D9EEE723689B1A23
:100E2C008342A3D9E9E723689B1A022BAFD9E4E7E5
:100E3C0023689B1A022BBBD9DFE76B68DF03DCD579
:100E4C0003F47013B3F5E01FD7D1B4E7136823F0A4
:100E5C00070343F002031360136803F00703022B2C
:100E6C00BDD1ADE70020024000ED00E00003FA0523
:100E7C0000100240000001401001002000700040F2
:100E8C000000424241F288316B6823F0030343F0C7
:100E9C0002036B6022686B6803F00C03082B40F0B4
:100EAC00CD80944A136803F00703022B00F2CC8028
:100EBC006B68914E23F4E06343F480636B606B6862
:100ECC0023F460536B606A6802F00C03082B00F08B
:100EDC00C8808A4B6A68DFF82892C2F30312324446
:100EEC0092F80926D9F80400D340C9F80030FFF76E
:100EFC002DFAEB69D90040F1C9800021814B1A68A9
:100F0C00D20540F1CE802B6A9B0500F1D9802B6A6B
:100F1C0023F4407343F480732B6219B1EB6923F013
:100F2C008053EB6100270DF140081097C8E9017759
:100F3C00AB69754843F01003AB61AB690FA903F0C3
:100F4C0010030393039BAB6943F02003AB61AB69C4
:100F5C0003F020030293029BAB6943F00403AB61E3
:100F6C00AB6903F004030193019BAB6943F00803E5
:100F7C00AB61AB6903F008030093009B4FF4004393
:100F8C000F9301231193FFF7BBF8604BDFF880C17F
:100F9C0094F85520C4E906C34FF48043C4E908779C
:100FAC00C4E90A37C4E90C77A76302F0FF03EAB976
:100FBC0084F854301193AB694FF0C00E43F0080322
:100FCC00AB61AB6903F008030993099B1223CDE9CC
:100FDC000FE303231293FFF793F8EB6943F4001329
:100FEC00EB61EB6903F400130893089B242384F84A
:100FFC005530474B1A6822F001021A601A6842F405
:10100C0000421A601A6822F400421A606B68414A66
:10101C00E069C3F3022333449042D9F8007093F88B
:10102C00193694BF3C4A3D4A27FA03F393428CBFCE
:10103C0000220122002A77D072B6FEE723689B1AA1
:10104C008B427FF628AFCAE6136823F0070343F000
:10105C0002031360136803F00703022B7FF4BFAE87
:10106C0026E7C2F383433344D00393F8F7350AD50C
:10107C006A682249C2F340424B43324492F8072635
:10108C00B3FBF2F326E7264A534323E7EB6901212E
:10109C0043F08053EB61EB6903F080530793079B9C
:1010AC002CE71A6842F480721A6020681A68D70517
:1010BC003FF529AF2268121A642AF7D972B6FEE7F7
:1010CC000127184A2B6AC2F84074002723F4407099
:1010DC00C2F84074DA0728627FF519AF41F2883004
:1010EC0022682B6A9B073FF512AF23689B1A834239
:1010FC00F7D9E3E7002002404C44000800127A00C4
:10110C000000002000700040000C0140801A060016
:10111C0000540040A08601007F841E00FF083D00A3
:10112C0000093D0000004242DFF81CE3C74A70454D
:10113C00B3FBF2F288BF4FF4967EC54903F1FF333F
:10114C00D1F804C02CF03F0C4CEA020C82BF0EFB11
:10115C0002F24FF47A7EB2FBFEF2C1F804C0D1F871
:10116C0020C001322CF03F0C4CEA02020A62CA6920
:10117C00B54922F44F42884222F0FF0200F2C481AA
:10118C004000B3FBF0F340F6FC7101330B4200F06E
:10119C00D381C3F30B031A43AD4BDFF8B8C2DA614A
:1011AC001968D4E90D2021F0C00102430A431A60EA
:1011BC009968D4E9090221F40341024321F0FF01AB
:1011CC000A439A60D968D4E90B2021F0FF0102434D
:1011DC000A43DA601A68A04942F001021A6000233F
:1011EC002022A36584F855204FF0FF32C4E9011288
:1011FC004FF48072E2600122C4E937C24FF6FF72ED
:10120C00A36484F85630C4E93A2394F81921C4E94C
:10121C003C33C4F8E43002F0FF03EAB91093C8E998
:10122C00013384F81831AB698C4843F40063AB612B
:10123C00AB690FA903F400630B930B9BAB6943F0F1
:10124C000403AB61AB6903F004030A930A9B4FF4EC
:10125C0040730F93FEF754FF022384F819317D4B32
:10126C009A6822F4804222F007029A601A68D4F835
:10127C00E41022F070020A43D4F8EC1022F440720D
:10128C000A43D4F8F41022F080020A431A60D4F80E
:10129C00E820DA62D4F8E0209A62D4F8F0201A63DD
:1012AC0001225A611A69D20742BF1A6922F001025F
:1012BC001A6198689A6940F001006FF30F0242F4CA
:1012CC00807242F00102196A98609A61012221F041
:1012DC00220141F02001196294F8181184F822219E
:1012EC00914284F81A2184F81B2184F81E2184F879
:1012FC001F2184F8192100F02381022184F819118F
:10130C00D3F804C098682CF0700C20F08000C3F85F
:10131C0004C0986084F819214FF4E132DFF840C121
:10132C000023C4E91BC20C22C4E91D33C4E92023E9
:10133C0084F81831E367C4F8883094F8AD3003F0C2
:10134C00FF081BBB84F8AC80CDF84480EB694348A4
:10135C0043F40033EB61EB6903F400330D930D9B05
:10136C00AB6943F00403AB61AB6903F004030C936A
:10137C000C9B0423CDE90F3103230FA91293FEF725
:10138C00BFFE0823CDE90F38FEF7BAFE2423344AFA
:10139C0084F8AD30D36823F40053D3601369A16F84
:1013AC0023F440530B431361E06F636FD168034325
:1013BC00D4F8800021F4B051034321F00C010B430D
:1013CC00D3605369D4F8841023F440730B43192170
:1013DC0053616B68C3F30223334493F8193627FA2D
:1013EC0003F34B43216F8900B3FBF1F36421B3FB8F
:1013FC00F1F001FB10331B013233B3FBF1F303EBC0
:10140C0000139360136923F490431361536923F021
:10141C002A035361D36843F40053D3602022002382
:10142C00C4F8B03084F8AD2084F8AE20C4F8A030F5
:10143C00226823689B1A142BFBD9FFF730F942F270
:10144C003332084B10E000BFA086010040420F0071
:10145C0000540040002C01400028004000080140CE
:10146C000044004000600040974ED3F8043C9BB20F
:10147C00934200F0A080637D03F0FF027BB92275DC
:10148C000122924B1A62EB6943F00063EB61EB694A
:10149C0003F000630E930E9B8D4BC3F83C24022388
:1014AC008C4D63756B6823F008036B6022686B6866
:1014BC001F0747D5FEF7ECFE002848D16B68864A1B
:1014CC0023F007036B60F16819B1136B23F0010370
:1014DC001363D36A23F460730B43D362B3685D1C4C
:1014EC0045D140F202317D4A136A1940B1F5817F32
:1014FC003AD003F44073B3F5007F2CD1536A9807AC
:10150C0025D549F6404331E0216A51B900EB400042
:10151C00B3FBF0F30133C3F30B037BB143F4004390
:10152C0039E619214143B3FBF1F30133C3F30B0348
:10153C0023B143F440432EE604232CE601232AE690
:10154C0072B6FEE733689B1AB3F57A7FAFD90423E2
:10155C00737572B6FEE7B3F5407FF8D11368990343
:10156C00F5D54FF2244301E04FF40043013B594AB7
:10157C00C3F303419BB29160D360FEF79FFE01461B
:10158C000028E4D10125142213A875747582757591
:10159C0000F0C2F937223B23CDE90F231723CDE905
:1015AC0011357D230FA81493FFF724FA42F233323E
:1015BC004B4BC3F8042C94F81A5194F81B0194F873
:1015CC001E1194F81F21012DD4F8DC30C0B2C9B221
:1015DC00D2B222D1012820D101291ED1012A1CD13D
:1015EC00022284F81A2184F81B2184F81E2184F825
:1015FC001F211A6A22F001021A621A6A42F00102D1
:10160C001A621A6A22F010021A621A6A42F0100266
:10161C001A621A6842F001021A6047F6FF755D62A1
:10162C00304B314FC4F82431304BC4F82831304B97
:10163C00C4F82C31FFF733F8FFF764F8D6F8DC3038
:10164C005B6AB3F5004F1ED3D6F8243103B198472B
:10165C00D6F8DC305D62BB681B0419D4D6F8302197
:10166C00E2B9012202202349FFF764F83368C6F877
:10167C003031FFF747F896F8B43013BBFFF79EF9FB
:10168C00FFF766F9DAE7AB42E2D0D6F82831DDE7AE
:10169C000023C6F8303186F83431EAE796F8343155
:1016AC00002BE6D133689B1A0A2BE2D9D6F82C41D1
:1016BC002CB1012202201049FFF73CF8A04701236E
:1016CC00E9E70E48DCE700BF1001002000000E42E5
:1016DC000000424200280040006C00400010024014
:1016EC0000600040E5070008000C0140A10800085C
:1016FC00290A0008094C0008154C0008C8010020F4
:10170C00FFF734FA0B480C490C4A002302E0D4587A
:10171C00C4500433C4188C42F9D3094A094C002331
:10172C0001E013600432A242FBD300F053FCFFF73C
:10173C00C9FA70470000002010010020F84D000885
:10174C0010010020DC030020FEE700000EB46FF057
:10175C00004110B500249DB01FAB0290069007917C
:10176C0004910948094953F8042B0591006802A912
:10177C0001931B9401F014F8029B1C701DB0BDE882
:10178C00104003B0704700BF680000200802FFFF44
:10179C00002310B50446C0E90033C0E9043383606C
:1017AC0081814366C2818361194608225C3000F056
:1017BC00B3F80D4B246263620C4BA3620C4BE362D7
:1017CC000C4B23630C4B9C4206D003F168029442F1
:1017DC0002D0D0339C4205D104F15800BDE8104032
:1017EC0000F0E0BC10BD00BFE92F00080F3000086E
:1017FC00473000086D3000086C020020024A034993
:10180C00034800F06BB800BF54000020292F0008DB
:10181C006C00002041680C4B10B59942044601D075
:10182C0001F07CFBA168094B994202D0204601F0E3
:10183C0075FBE168064B994204D02046BDE8104088
:10184C0001F06CBB10BD00BF6C020020D402002064
:10185C003C0300200C4B0D4A10B504211A600C48B7
:10186C000022FFF795FF0A4B01221C46092103F1C8
:10187C006800FFF78DFF04F1D0000222BDE8104094
:10188C001221FFF785BF00BFA40300200918000830
:10189C006C020020014800F087BC00BFAB030020A5
:1018AC00014800F083BC00BFAB03002010B5044618
:1018BC00FFF7F0FF236A1BB1BDE81040FFF7F0BF44
:1018CC00044B2362044B1B68002BF5D1FFF7C2FFBE
:1018DC00F2E700BF21180008A40300202DE9F8430B
:1018EC000746884614460026D4E90195B9F101094A
:1018FC0005D52468002CF7D13046BDE8F883AB89B8
:10190C00012B07D9B5F90E30013303D029463846DF
:10191C00C04706436835E9E703460244934200D1C9
:10192C00704703F8011BF9E738B50B4B04461D68EB
:10193C006A6B52B9242001F02FF80246686320B973
:10194C003D21064B064800F061FE2046BDE83840BC
:10195C00114600F007B800BF680000207C4A000860
:10196C00934A00082DE9F04100230C46D0E9000110
:10197C004C4AFFF70FF94FF46161002ABCBF02F526
:10198C00A83202F5C072B2FBF1F301FB13224FF047
:10199C003C01A360B2FBF1F301FB132222604FF078
:1019AC00070200F52F20ACBF00F66C2000F66B2070
:1019BC006360C31C93FBF2F2C2EBC2029B1A3A495E
:1019CC0055D50733A361A0F50E33A3F52C7393FB08
:1019DC00F1F1364B40F2B45C03FB010048F6AC630A
:1019EC00B0FBF3F3B0FBFCF203449B1A304A40F219
:1019FC006D17B0FBF2F29B1AB3FBF7F26426B3FB44
:101A0C00FCF3B2FBF6F5EB1A0344992007FB1233F7
:101A1C0003EB83070237B7FBF0FC4FF0050800FB24
:101A2C000CF00230B0FBF8F003F1010EAEEB00004D
:101A3C0040F2F95E77458CBF6FF0090702276744C7
:101A4C004FF4C87C0CFB0121012F98BF0131B3F579
:101A5C00997F12D3A3F59973E3610023A1F26C7102
:101A6C00E060C4E9047120462362BDE8F0810028DF
:101A7C00A361A8DB90FBF1F1ABE712F0030F02D1ED
:101A8C0006FB15255DB94FF4C875B2FBF5F605FBE1
:101A9C001622B2FA82F252093B331344DCE70122DC
:101AAC00FAE700BF80510100B13A02004FC5FDFFBB
:101ABC00B03A0200F7B5016804463B2911D93C2223
:101ACC00684600F0C1FD019A63680099002A0B4436
:101ADC006360BBBF3C3203F1FF3322602260B8BFAE
:101AEC00636061683B2911D93C22684600F0ACFD6B
:101AFC00019AA3680099002A0B44A360BBBF3C3237
:101B0C0003F1FF3362606260B8BFA360A16817295C
:101B1C0011D91822684600F097FD019AE3680099E4
:101B2C00002A0B44E360BBBF183203F1FF33A26001
:101B3C00A260B8BFE36021690B2911D90C22684659
:101B4C0000F082FD019A63690099002A0B446361DD
:101B5C00BBBF0C3203F1FF3322612261B8BF63615A
:101B6C0063699A073FD1642193FBF1F201FB1232B6
:101B7C00002A3AD14FF4C87203F26C7393FBF2F162
:101B8C0002FB1133002B0CBF1D231C23E268002A1F
:101B9C002DDD304D216901290CBF184655F8210067
:101BAC0082424DDD0131121A0C29E2602161F1D122
:101BBC00002063692061591C8807616146D164204B
:101BCC0091FBF0F600FB1611002941D14FF4C871BE
:101BDC0003F26D7393FBF1F001FB1033002B0CBF80
:101BEC001D231C23D6E71C23D0E71D23CEE70B2592
:101BFC006420184E216901392161013116D16369C4
:101C0C00591E8F07C4E904511CD191FBF0F700FB5E
:101C1C001711C9B94FF4C87103F26B7393FBF1F749
:101C2C0001FB1733002B0CBF1D231C232169012939
:101C3C000CBF194656F821100A44002AE260D9DD7F
:101C4C0003B0F0BD1C23F1E71D23EFE71C23A1E734
:101C5C001D239FE7544C00082DE9F04F85B0074633
:101C6C0001F01CFB81463846FFF724FFD7E90043FF
:101C7C003C2202FB03444FF46162BB687D6902FBAA
:101C8C000344D7E90363C34A013E52F82320012BD6
:101C9C00164411DDA9070FD1642295FBF2F302FB68
:101CAC00135343B94FF4C87205F26C7393FBF2F102
:101CBC0002FB113303B9013644F6206205F51C53BF
:101CCC0010339342FE6100F27081462D40F3B680D2
:101CDC00462340F26D1C64214FF4C8709A0740F003
:101CEC00A78093FBF1F201FB1232002A40F0A38093
:101CFC0003F26C7292FBF0FE00FB1E22002A0CBF5A
:101D0C004FF4B77262460133AB421644E6D1A24B94
:101D1C004FEAE478C6FB034800F032FA00F03CFAD4
:101D2C009E4B1B68002B00F04781D7F820A07869E8
:101D3C005346012BA8BF01230193D9F8043000F2BC
:101D4C006C70834240F0BD80D9E90821D9F850006D
:101D5C00D9F84CC0131A0393D9F8483061EBE07BE7
:101D6C000293029AD9F82830B2EB030E6CEBE371B4
:101D7C00744578EB010280F2C780D9F80020002A64
:101D8C0000F0D080039A944278EB0B02C0F21181E0
:101D9C00744578EB0101B4BF4FF0010B4FF0000B11
:101DAC00BAF1000FC0F29480019A82EA0B0ABAF1E0
:101DBC00010F40F08D80BBF1000F00F0C2801B1AA8
:101DCC003A681C191A443A60FA68384648EBE378CA
:101DDC000192FFF76FFEFB68019A9B1A78D0012BDA
:101DEC0000F3B180B3F1FF3FA8BF9A46FB6956449C
:101DFC001AEB030340F1B0806B1E990740F0A680EC
:101E0C00642293FBF2F102FB1133002B40F0A18012
:101E1C004FF4C87305F26B7595FBF3F203FB125587
:101E2C00002D40F26D1318BF4FF4B673FB614FE0F9
:101E3C0040F26D1267E74FF4B77264E73FF467AF97
:101E4C00452340F26D1C64214FF4C87012E062BB54
:101E5C0093FBF1F201FB123252BB03F26C7292FB58
:101E6C00F0FE00FB1E22002A0CBF4FF4B772624634
:101E7C00B61A013BAB4203F00302E8DCDAB9642288
:101E8C0095FBF2F302FB1353C3B94FF4C87205F27E
:101E9C006C7393FBF2F102FB1133002B40F26D13C8
:101EAC0008BF4FF4B773F61A31E740F26D12DFE753
:101EBC004FF4B772DCE740F26D13F4E74FF4B773ED
:101ECC00F1E700F0ABF800287FF43EAFDDF804B08A
:101EDC00BBF1010F72D14FF0010BD9F850301C1926
:101EEC0048EBE37800F052F90723043696FBF3F342
:101EFC00C3EBC303F61A56D4C7F820B0BE61204614
:101F0C00414605B0BDE8F08F029A121A02924FEAD0
:101F1C00E0726CEB020C029A944278EB0C0CBFF65C
:101F2C002CAFD3E7039A944278EB0B02FFF630AF59
:101F3C00BAF1000FCFDB4FF0010B35E74FF0000B80
:101F4C0032E7C31A3CE74FF0FF3A4FE74FF4B67352
:101F5C006CE740F26D1369E7AA0717D1642195FB72
:101F6C00F1F201FB1252DAB94FF4C87205F26C753A
:101F7C0095FBF2F102FB1155002D40F26D1208BFDA
:101F8C004FF4B7729342A8BF9B1A4FE740F26D1201
:101F9C00F8E700BF244C000880510100CC0300205E
:101FAC004FF4B772EEE70736A6E74FF0FF34A046C2
:101FBC00A5E7BAF1000FC1DA4FF0000BD9F82830C1
:101FCC001C1948EBE3788DE7014B1868704700BF8C
:101FDC006800002070B500260C4D0D4B5B1B9C104F
:101FEC00A64209D1002602F01FFA0A4D0A4B5B1BD0
:101FFC009C10A64205D170BD55F8043B984701369C
:10200C00EEE755F8043B98470136F2E7F04D00082F
:10201C00F04D0008F04D0008F44D00082DE9F84390
:10202C00044601F03BF940F2B1739C4240F3A280AC
:10203C006FF4F66540F26D126619A4F2B273B61025
:10204C0002FB03666FF06302A4F26D7393FBF2F371
:10205C006FF4C8674FF4C8721E44E319B3FBF2F374
:10206C000546454A44601E4400F150072B7AD5F8CA
:10207C0014C04A2B38D1A10706EB0C0306D14FF044
:10208C00640E94FBFEF10EFB114131B94FF4C87E86
:10209C0094FBFEF10EFB114119BBBCF13B0FD4BFFD
:1020AC004FF0000C4FF0010C6344013BA9694FEA5F
:1020BC00E17CC3FB021CAB6AC9184CEBE373C5E9AA
:1020CC0008132835AF42D1D1D0E90843D0E9121218
:1020DC008C429341B4BF0123002303600120BDE86F
:1020EC00F8834FF0000CDFE7442B02D106EB0C0316
:1020FC00DCE7A30705D1642194FBF1F301FB134347
:10210C008BBB4FF4C87194FBF1F301FB1343B3FA8F
:10211C0083F35B0931464FF00008DFF860E05B4267
:10212C0003F03003D5F80C90734408F10108C14555
:10213C0053F828E019DC072301F1040898FBF3F3AA
:10214C00C3EBC303A8EB0303BCEB030C2B6948BF25
:10215C000CF1070C013BC3EBC3039C44F44506DABA
:10216C0001EB0C03A2E70123D4E77144DDE7ACF1EA
:10217C00070CF3E70020B2E780510100804C000807
:10218C00014800F010B800BFA8030020014800F07F
:10219C000CB800BFA8030020014B186800F008B869
:1021AC006800002070477047704770477047000008
:1021BC002DE9F04F8DB0054601F070F8BC4904468E
:1021CC00284600F085FABB4F0646396810BBBA4B5F
:1021DC00BA4A1860BA4BC4E903661860B94B4A2076
:1021EC00C3E9002200220023207284F83000C4E9E5
:1021FC0005660846C4E90823C4E90D66C4E90F6600
:10220C00C4E91223A662266500F0CEFB3E600DB039
:10221C00BDE8F08F002940F08F80386800F0C4FBD7
:10222C003046FEF7AFFC411C284600F0E7FB386057
:10223C00002840F087800023A14A00201360002171
:10224C00A14AA04FC4E90333C7E900224A22C4E9DA
:10225C000533C4E90801C4E90D33C4E90F33C4E9FB
:10226C001201DFF854A22272CAF80030A36284F87B
:10227C003020236533780DF1280B3A2B08BF01363B
:10228C0033783C2B62D1751C5B4628468F4A9049AB
:10229C0000F078FE0028BADD0A9BDA1E072AB6D8B1
:1022AC00EA5C3E2AB3D10236F518F35C2D2B5BD1D8
:1022BC004FF0FF38013500230DF12009ADF81E3029
:1022CC00ADF820300DF11E03009328465B46CDE996
:1022DC0001B98049CDF80CB007AA00F053FE0028D4
:1022EC0095DD3C22BDF81E30BDF8206002FB036674
:1022FC004FF46162BDF81C3002FB03660A9B08FBBD
:10230C0006F605EB0308EB5C3C2B40F0ED8008F186
:10231C0001055B462846704A6D4900F033FE0028E3
:10232C0028DC98F801303E2B24D1684BA662C7E913
:10233C000033CAF800606AE7FEF71AFC00287FF445
:10234C006CAF64E7314600F059F974E75B463046F0
:10235C005E4A624900F016FE00287FF758AF0A9BD0
:10236C00DA1E072AA0D952E72B2B4FF0010808BF21
:10237C000135A0E70A9BDA1E072A3FF648AFEA5C54
:10238C003E2A7FF444AF08F1020808EB030518F865
:10239C0003302D2B40F0B7804FF0FF380135002370
:1023AC00ADF81C30ADF81E30ADF820300A930DF1AD
:1023BC001E03009328465B46CDE9029B4549CDF8A8
:1023CC0004B007AA00F0DEFD002800F3A280A6F5F9
:1023DC006163A0464FF0000B04930A9B1D442B78BD
:1023EC002C2B08BF013595F80090B9F14D0F40F03A
:1023FC00A0800AAB0DF12602CDE9013209AA0092A8
:10240C002846374903930DF1220200F0BBFD032847
:10241C007FF4FDAEBDF822104B1E0B2B3FF6F7AE32
:10242C00BDF82420531E042B3FF6F1AEBDF8263028
:10243C00062B3FF6ECAEC8E9031288F80890C8F8F2
:10244C0014300A9B05EB030900254FF00203ADF88D
:10245C001E50ADF81C30ADF820500A9599F800309C
:10246C002F2B40F094800AAB08AACDE901320DF174
:10247C001E02009248461B49039307AA00F082FDF6
:10248C00A84200F384804A2100220023C4E90355AA
:10249C00C4E90555C4E90823C4E90D55C4E90F5531
:1024AC00C4E912232172A56284F830102565AEE6CA
:1024BC00F44A0008AC030020C8030020F74A0008C7
:1024CC00CC030020600000207D4B0008BC030020E2
:1024DC00FB4A0008304B0008B00300200E4B0008EC
:1024EC001C4B00082F4B00085B4640463F4A4049B6
:1024FC0000F048FD00287FF718AF0A9BDA1E072A68
:10250C007FF643AF83E62B2B4FF0010808BF013554
:10251C0045E73C21BDF81E20BDF8203001FB0233FD
:10252C004FF46161BDF81C2001FB023308FB03F37F
:10253C004FE7B9F14A0F0ABF4B46442301350A2233
:10254C0028460BA9059300F03FFEDDF82C90059B67
:10255C00A945ADF8260014D14D23BBF1000F07D1CE
:10256C00032123720223C4F814B0C4E903136BE7EC
:10257C000B2284F830300123C4E90D230023E363DC
:10258C0062E780B288F80830C8F814005CE73C2198
:10259C00BDF81E20BDF8203008F1280801FB0233DD
:1025AC004FF46161BDF81C2001FB023348F8103C6C
:1025BC000A9D0BF10103022B4FF0010B4D447FF4EC
:1025CC000EAF049B606823650A4BA6623B60074B09
:1025DC007B60FFF723FDA26A236DCAF800209B1ACB
:1025EC0018BF0123044A136011E600BFB00300209A
:1025FC000E4B0008BC030020CC030020034611F84E
:10260C00012B03F8012B002AF9D170471FB5144692
:10261C001A46094B05461B68D8684CB1074BCDE9E7
:10262C00013400912B46064900F01EFD00F078FEA7
:10263C00044B1C46F3E700BF68000020424B000827
:10264C004F4B00087D4B000810B591FBF2F402FBD8
:10265C0014110460416010BD2DE9F84FDFF86CA037
:10266C0006468946174600F063FEDAF8004034B19E
:10267C004B46984613F8012B3AB13D2AF9D1304616
:10268C0000F05CFE0020BDE8F88FA8EB0908A3461B
:10269C0054F8040B0028F2D04246494600F0B7FD2E
:1026AC000028F4D154F8043C03EB080513F8083067
:1026BC003D2BECD1DAF800303046ABEB03039B102A
:1026CC003B6000F03BFE681CDDE700BF50000020C3
:1026DC0007B501AAFFF7C0FF03B05DF804FB2DE9B5
:1026EC00F0471F468E688246BE420C4690463346E3
:1026FC0053D8B1F90C0010F4906F2BD06569236896
:10270C00096905EB4505A3EB010905EBD5757B1CA8
:10271C006D104B44AB422A4684BF1D462A464305E6
:10272C0027D51146504600F069F9064658B34A467B
:10273C00216900F0E7FDA38923F4906343F0800343
:10274C00A38126614E4426603B463E466561A5EB5F
:10275C000905A5601F463A464146206800F03EFD3B
:10276C000020A3689B1BA36023683B442360BDE847
:10277C00F087504600F08AFC06460028E1D150460E
:10278C00216900F0E1FD0C23CAF80030A3894FF059
:10279C00FF3043F04003A381E9E73E46DBE700004E
:1027AC002DE9F04F98468B8907461B060D461446BB
:1027BC009DB010D50B6973B9402100F01FF928604A
:1027CC00286130B90C233B604FF0FF301DB0BDE8E1
:1027DC00F08F40236B610023099320238DF829305F
:1027EC0030234FF00109CDF80C80DFF898818DF87B
:1027FC002A3023469A4613F8012B0AB1252AF9D11F
:10280C00BAEB040B0BD05B46224629463846FFF741
:10281C0066FF013000F0A780099A5A4409929AF891
:10282C000030002B00F09F8000234FF0FF32CDE9E9
:10283C0005230AF1010A049307938DF853301A9378
:10284C005446052214F8011B4E4800F04DFD049A25
:10285C00D8B9D00644BF20238DF85330110744BF9C
:10286C002B238DF853309AF800302A2B15D0544670
:10287C0000204FF00A0C079A214611F8013B303B1F
:10288C00092B4BD9B0B1079214E0A0EB080309FA5D
:10289C0003F31343A2460493D2E7039B191D1B6851
:1028AC000391002BBBBF5B4242F0020207930793DC
:1028BC00B8BF049223782E2B0AD163782A2B32D1FD
:1028CC00039B02341A1D1B68039243EAE3730593BE
:1028DC00DFF8B4A003225046217800F005FD38B192
:1028EC004022049BA0EB0A00824013430134049362
:1028FC0014F8011B062225488DF8281000F0F4FC72
:10290C00002836D0224B1BBB039B073323F0070355
:10291C0008330393099B334409936AE70C4601205F
:10292C000CFB0232A8E700234FF00A0C19460134C5
:10293C000593204610F8012B303A092A03D9002BB5
:10294C00C6D00591C4E7044601230CFB0121F0E736
:10295C0003AB00932A4638460E4B04A9AFF3008014
:10296C00421C0646D6D1AB895B063FF52DAF0998C4
:10297C002CE703AB00932A463846064B04A900F01B
:10298C002FF9EDE77E4B0008844B0008884B0008BC
:10299C0000000000EB260008024B0146186800F00E
:1029AC002DB800BF68000020024B0146186800F0EB
:1029BC00CBBC00BF6800002070B50F4E0C463168D0
:1029CC00054611B900F05AFC30602146284600F04B
:1029DC0055FC431C03D14FF0FF34204670BDC41C82
:1029EC0024F00304A042F8D0211A284600F046FC3B
:1029FC000130F2D1EFE700BFD00300202DE9F843FE
:102A0C00CD1C25F0030508350C2D38BF0C25002DE9
:102A1C00064601DBA94204D90C2333600020BDE833
:102A2C00F883DFF8D48000F0A1FAD8F800301C4607
:102A3C0044BB29463046FFF7BFFF431C044658D120
:102A4C00D8F800402746002F43D1002C4BD02368E8
:102A5C003946304604EB030900F010FC814542D1A5
:102A6C00216830466D1A2946FFF7A6FF01303AD08F
:102A7C0023682B442360D8F800305A6862BBC8F82E
:102A8C0000700FE02268521B20D40B2A17D9611951
:102A9C00A342256018BF5960636808BFC8F80010CE
:102AAC0062514B60304600F067FA04F10B00231DB5
:102ABC0020F00700C21A1CBF1B1AA350AFE76268B4
:102ACC00A3420CBFC8F800205A60EBE723466468A9
:102ADC00AEE73C467F68B6E71A465B68A342FBD17B
:102AEC0000235360DEE70C233046336000F044FAD9
:102AFC0094E70560D6E700BFD40300202DE9F0472A
:102B0C00164698468A680B6907469342B8BF134627
:102B1C00336091F843200C46DDF820900AB1013364
:102B2C0033602368990642BF3368023333602568EB
:102B3C0015F0060506D104F1190AE36832689B1AF0
:102B4C00AB422BDC94F843302268003B18BF0123C6
:102B5C00920630D44146384604F14302C84701304E
:102B6C0023D02368226903F00603042B14BF00252D
:102B7C0033684FF0000608BFE56804F11A0408BF7B
:102B8C00ED1A54F8123C08BF25EAE5759342C4BF10
:102B9C009B1AED18B5421AD1002008E001235246C9
:102BAC0041463846C847013003D14FF0FF30BDE8ED
:102BBC00F0870135C1E73020E11881F843005A1C39
:102BCC0094F845102244023382F84310C2E70123E3
:102BDC00224641463846C8470130E6D00136D9E78F
:102BEC002DE9FF470F7E9146782F80460C469A467A
:102BFC000C9E01F1430207D8622F0AD8002F00F077
:102C0C00D280582F00F0B78004F1420684F842704D
:102C1C003AE0A7F16303152BF6D801A151F823F084
:102C2C00852C0008992C0008152C0008152C000880
:102C3C00152C0008152C0008992C0008152C0008E0
:102C4C00152C0008152C0008152C0008992D0008CF
:102C5C00C32C00084F2D0008152C0008152C00085B
:102C6C00BB2D0008152C0008C32C0008152C0008DF
:102C7C00152C0008572D000833681A1D1B6832608C
:102C8C0004F1420684F8423001239DE03368206849
:102C9C00191D3160060601D51D6803E04506FBD5FC
:102CAC00B3F90050002D03DA2D236D4284F8433024
:102CBC000A23594810E021683368080653F8045B6E
:102CCC0002D4490648BFADB26F2F5348336059D177
:102CDC000823002184F843106668002EA66005DBEB
:102CEC0021682E4321F0040121604DD01646B5FB1E
:102CFC00F3F103FB1157C75D06F8017D2F46BB426C
:102D0C000D46F4D9082B0BD12368DF0708D52369AE
:102D1C0061689942DEBF302306F8013C06F1FF36AC
:102D2C00921B22614B4621464046CDF800A003AAD7
:102D3C00FFF7E4FE01304CD14FF0FF3004B0BDE89A
:102D4C00F087236843F0200323607827334884F806
:102D5C004570236831681F0651F8045B02D45F0686
:102D6C0048BFADB23160D90744BF43F020032360A4
:102D7C001DB11023ADE72848E9E7236823F02003B1
:102D8C002360F6E70A23A4E71646BBE733682568F9
:102D9C00181D616930602E061B6801D5196002E0B0
:102DAC006806FBD51980002316462361BAE7336801
:102DBC0000211A1D32601E686268304600F094FAD9
:102DCC0008B1801B606063682361002384F8433082
:102DDC00A8E73246494640462369D0470130ABD07C
:102DEC0023689B0713D4E068039B9842B8BF18462E
:102DFC00A4E70123324649464046D04701309BD0D8
:102E0C000135E36803995B1AAB42F2DCEBE7002572
:102E1C0004F11906F5E700BF8F4B0008A04B000822
:102E2C00B1F90C20F8B5160705460C4651D44B6881
:102E3C00002B02DC0B6C002B49DDE66A002E46D021
:102E4C00002312F480522F682B6031D0626DA3895D
:102E5C00590705D56368D21A636B0BB1236CD21A70
:102E6C0000232846E66A216AB047421CB4F90C30AC
:102E7C0006D129681D2945D8274ACA40D60741D50D
:102E8C00002262602269D904226004D5421C01D15F
:102E9C002B6803B96065616B2F60C1B104F1440309
:102EAC00994202D0284600F04FFA002363630EE0EB
:102EBC0001232846216AB0470246501CC7D12B6813
:102ECC00002BC4D01D2B01D0162B19D12F60002044
:102EDC001DE00F69002FFAD0930718BF00230E686E
:102EEC0008BF4B69F61B0F608B60002EEFDD33467D
:102EFC003A462846216AD4F828C0E047002807DC67
:102F0C00B4F90C304FF0FF3043F04003A381F8BD0F
:102F1C000744361AE9E700BF0100402038B50B69B9
:102F2C0005460C4613B90025284638BD18B1036A6E
:102F3C000BB9FEF7BBFCB4F90C30002BF3D0626E6E
:102F4C00D00704D4990502D4A06DFFF72DF92846BB
:102F5C002146FFF765FF636E0546DA07E4D4A389C3
:102F6C009B05E1D4A06DFFF721F9DDE70148FFF7E0
:102F7C001BB900BFAA0300200148FFF717B900BF17
:102F8C00AA0300200EB44FF4017270B500259DB059
:102F9C0021AC54F8046BADF814201B9502900690EC
:102FAC00FDF7F0FD0B4B03900B934FF6FF7307905F
:102FBC000948ADF816303246234602A900680F9531
:102FCC001495019400F062FA1DB0BDE8704003B096
:102FDC00704700BF0B3000086800002010B50C468D
:102FEC00B1F90E1000F038F90028ABBF636DA3895E
:102FFC001B1823F48053ACBF6365A38110BD002064
:10300C0070472DE9F0411F468B890546DB050C46C0
:10301C00164605D502230022B1F90E1000F00AF96C
:10302C00A389324623F48053A38128463B46B4F946
:10303C000E10BDE8F04100F035B910B50C46B1F9F1
:10304C000E1000F0F7F8B4F90C30421C0BBF23F44F
:10305C00805343F48053A381A38118BF606510BDD6
:10306C00B1F90E1000F030B90EB403B5014603AB44
:10307C00054853F8042B0068019300F0ADFB02B037
:10308C005DF804EB03B07047680000202DE9F041B7
:10309C00074614460D4621B91146BDE8F041FFF72D
:1030AC00ADBC2AB900F050F925462846BDE8F081A0
:1030BC0000F02DFE8442064602D8B4EB500FF4D833
:1030CC0021463846FFF79AFC804608B94546ECE79E
:1030DC00B4422246294628BF324600F013F929464D
:1030EC00384600F031F9F1E72DE9F04386460D46FC
:1030FC00334E284615F8014B375D17F00807F8D109
:10310C002D2C10D101272C78851C33F0100015D1F3
:10311C00302C0DD1287800F0DF00582808D16C78BD
:10312C00023510230AE02B2C04BF2C78851CECE70D
:10313C00002BF6D1302C14BF0A2308234FF0FF3894
:10314C00B8FBF3F8002603FB08F930466FEA0909CF
:10315C00A4F1300CBCF1090F10D86446A3421EDD5B
:10316C00B6F1FF3F07D0804516D301D1A14513DB43
:10317C00012600FB034015F8014BE9E7A4F1410CD3
:10318C00BCF1190F01D8373CE8E7A4F1610CBCF194
:10319C00190F04D8573CE1E74FF0FF36EBE7731CEF
:1031AC0006D122233046CEF8003032B9BDE8F08388
:1031BC0007B14042002AF9D006B1691E1160F5E74B
:1031CC00E54C0008FFF790BF13460A46014602483B
:1031DC000068FFF789BF00BF68000020884210B567
:1031EC0001EB020402D98442234607D8431EA142B4
:1031FC0007D011F8012B03F8012FF8E702448242A3
:10320C0000D110BD13F8011D02F8011DF7E710B530
:10321C006AB10139841810F8012B11F8013F9A4258
:10322C0003D1A04201D0002AF5D1D01A10BD10460E
:10323C00FCE7000038B50446084611460022054D4F
:10324C002A601A46FDF76EFC431C02D12B6803B1B1
:10325C00236038BDD803002038B504460846114613
:10326C000022054D2A601A46FDF730FC431C02D1A2
:10327C002B6803B1236038BDD803002038B5002378
:10328C00054D044608462B60FDF74EFC431C02D14D
:10329C002B6803B1236038BDD80300200048704769
:1032AC00B800002038B50446084611460022054DEA
:1032BC002A601A46FDF718FC431C02D12B6803B197
:1032CC00236038BDD803002038B50023054D0446D3
:1032DC0008462B60FDF71CFC431C02D12B6803B184
:1032EC00236038BDD8030020034610B5C9B2024490
:1032FC009342184601D1002003E0047801338C423C
:10330C00F6D110BD0A44914200F1FF3300D1704751
:10331C0010B511F8014B914203F8014FF9D110BDD2
:10332C00062008B500F0C8FE0120FDF7C9FB00001F
:10333C000148FEF739BF00BFA90300200148FEF782
:10334C0035BF00BFA903002038B50546002940D081
:10335C0051F8043C0C1F002BB8BFE418FFF706FE15
:10336C001C4A136833B9636014602846BDE83840C2
:10337C00FFF702BEA34208D9206821188B4201BF77
:10338C0019685B6809182160EDE71A465B680BB198
:10339C00A342FAD911685018A0420BD120680144FD
:1033AC00501883421160E0D118685B6808441060C3
:1033BC005360DAE702D90C232B60D6E7206821187A
:1033CC008B4201BF19685B68091821606360546007
:1033DC00CBE738BDD403002038B54B1C144603D1C1
:1033EC004FF0FF35284638BD9389CDB223F020032A
:1033FC009381636B52688BB1A36B934208DD236896
:10340C005A1E226003F8015C636801336360E9E7CC
:10341C00214600F084FC0028F1D0E1E72169236803
:10342C0051B1994208D213F8011CA94204D1013BB5
:10343C00013223606260D5E7C4E90F3204F1440322
:10344C0063630323A363234603F8465F23600123CE
:10345C00DCE710B50C46496B69B104F144039942A1
:10346C0001D0FFF771FF0020236C6063636013B120
:10347C00E36B236010BD23694FF0FF302360002302
:10348C006360A38943F02003A381F3E72DE9F04F98
:10349C000D460021ADF5237D0746E84641ACC4E955
:1034AC00031101A96161AE49DFF8B8B2C4F87C110F
:1034BC00AD490093C4F8801192F80090B9F1000F57
:1034CC0000F060811BF80930561C13F008031BD068
:1034DC006B68002B10DD2B681A781BF80220120782
:1034EC0001D43246E8E722690133013222616A686D
:1034FC002B60013A6A60EBE729463846D4F88031F4
:10350C0098470028E7D0ECE7B9F1250F40F085800B
:10351C002360A36053782A2B04BF1023961C4FF012
:10352C000A0208BF2360B2461AF8011BA1F130034E
:10353C00092B1DD98D4B03221846FFF7D5FE38B148
:10354C008A4B5646C01A01232268834013432360DA
:10355C0016F8013B782B06D8572B10D8252B5CD0AE
:10356C0056D8002B75D00323A3610A23636088E02F
:10357C00A368564602FB03113039A160D3E7A3F1CF
:10358C005802202AEFD801A151F822F06D3600081C
:10359C007335000873350008C93600087335000808
:1035AC00733500087335000873350008733500084F
:1035BC007335000873350008DF360008C53600087F
:1035CC00233600082336000823360008733500081C
:1035DC007F36000873350008733500087335000812
:1035EC0073350008EF36000887360008653600088A
:1035FC007335000873350008EB3600087335000886
:10360C00C536000873350008733500086D360008A0
:10361C00453B022BA7D8052332E06B68002B0DDD50
:10362C002B681A784A4540F0AD8001336A682B60EC
:10363C002369013A01336A60236152E7294638460F
:10364C00D4F8803198470028EAD0E068002840F090
:10365C0091804FF0FF3091E0226842F0200222600E
:10366C00226842F40072226010226E2B626006D82F
:10367C0001E000236360032302E00823636004235A
:10368C00A3616B68002B3CDD2368590605D42B68BD
:10369C001A781BF8022012073BD4A369022B4BDCCF
:1036AC0043462A462146384600F0AEF9012869D037
:1036BC0002287FF416AFC8E70A22D6E7314601A8E4
:1036CC0000F0ECFA2368064643F040032360012324
:1036DC00D6E7236843F0400323600023D0E702239E
:1036EC00CEE72068C3063FF5FCAED8F8003022695F
:1036FC00191DC8F800101B68C0074CBF1A801A604F
:10370C00EFE629463846D4F8803198470028BBD0DC
:10371C009BE72269013222616A68013A002A6A60D9
:10372C0002DD01332B60B2E729463846D4F88031EC
:10373C0098470028ABD088E7042B06DC43462A4682
:10374C002146384600F0BAF9B0E7094B002B3FF49C
:10375C00C8AE43462A4621463846AFF30080A5E75B
:10376C00E5330008E54C00085F340008844B000882
:10377C0000000000AB895B063FF56BAF0DF5237DB8
:10378C00BDE8F08FE068F9E7936810B4013B002BBB
:10379C00936007DA9469A34201DB0A2902D110BCB9
:1037AC0000F0F5BA1368581C10601970084610BC6C
:1037BC007047F8B506460F461446D518AC4201D1F1
:1037CC00002007E03A46304614F8011BFFF7DCFFF7
:1037DC00431CF3D1F8BD00002DE9F04F0D46144603
:1037EC00984606469DB018B1036A0BB9FEF75EF811
:1037FC006B6ED90705D4AB899A0502D4A86DFEF778
:10380C00D3FCAB891B0701D52B699BB929463046E4
:10381C0000F078FB70B16B6EDC0704D54FF0FF3015
:10382C001DB0BDE8F08FAB899805F7D4A86DFEF7F5
:10383C00BDFCF3E70023099320238DF829303023B6
:10384C004FF00109CDF80C80DFF8A8818DF82A30F3
:10385C0023469A4613F8012B0AB1252AF9D1BAEB63
:10386C00040B0BD05B46224629463046FFF7A1FFDE
:10387C00013000F0A780099A5A4409929AF8003056
:10388C00002B00F09F8000234FF0FF32CDE9052381
:10389C000AF1010A049307938DF853301A93544696
:1038AC00052214F8011B5348FFF71EFD049AD8B9E2
:1038BC00D10644BF20238DF85330130744BF2B236C
:1038CC008DF853309AF800302A2B15D0544600202E
:1038DC004FF00A0C079A214611F8013B303B092B9B
:1038EC004BD9B0B1079214E0A0EB080309FA03F32B
:1038FC001343A2460493D2E7039B191D1B68039143
:10390C00002BBBBF5B4242F0020207930793B8BF88
:10391C00049223782E2B0AD163782A2B32D1039B65
:10392C0002341A1D1B68039243EAE3730593DFF814
:10393C00C8A0032250462178FFF7D6FC38B14022AC
:10394C00049BA0EB0A00824013430134049314F847
:10395C00011B062229488DF82810FFF7C5FC00280A
:10396C003FD0274B1BBB039B073323F007030833C4
:10397C000393099B3B4409936AE70C4601200CFB1B
:10398C000232A8E700234FF00A0C194601340593C4
:10399C00204610F8012B303A092A03D9002BC6D047
:1039AC000591C4E7044601230CFB0121F0E703ABAE
:1039BC0000932A463046134B04A9AFF30080074608
:1039CC00781CD6D16B6ED90705D4AB899A0502D475
:1039DC00A86DFEF7EBFBAB895B063FF51FAF0998B3
:1039EC001EE703AB00932A463046064B04A9FFF7AB
:1039FC00F7F8E4E77E4B0008844B0008884B00087E
:103A0C0000000000BF3700082DE9F84315468A680E
:103A1C0080460C4632B98A69002A14BF4FF0FF3237
:103A2C0001228A6000272268DFF88C90D1065FBFE4
:103A3C001A68111D19601668A06988B1012807D190
:103A4C002B681A7863699B5C53B9002F31D022E044
:103A5C00022820D12B681B7819F803301B071AD4C5
:103A6C0023680137DA065EBF2B681B7806F8013B2A
:103A7C002A686B6801322A60A268013B013A6B60CC
:103A8C00A26042B1002BD7DC29464046D4F88031E5
:103A9C0098470028D0D0236813F0100305D1E268B2
:103AAC000132E260A26902B13370002023693B4409
:103ABC002361BDE8F88300BFE54C00082DE9F04F09
:103ACC000C469846714B87B08246164693E8070021
:103ADC0003AB83E807006E4BA1696E4A27460329A6
:103AEC0008BF1A46A36801925A1EB2F5AE7F81BF79
:103AFC006FF4AE7503EB050940F25D13A36057F844
:103B0C001C3B98BF4FF000093D464FF0000B43F4AF
:103B1C0050632360316803AB0222097853F82B0001
:103B2C00FFF7E2FB28B3BBF1010F58D162682AB949
:103B3C0008212268616042F400722260226822F43B
:103B4C00A0622260A268511EA16092B13268511C21
:103B5C003160127805F8012B7268013A002A726004
:103B6C0007DC31465046D4F880219047002840F0BD
:103B7C0083800BF1010BBBF1030FCBD1616809B949
:103B8C000A216160444B6069591A00F087F84FF0C4
:103B9C00000BA3682268002B3DD03168606991F856
:103BAC0000C010F80C00002835D0BCF1300F24D127
:103BBC00100522D50BF1010BB9F1000F03D0013325
:103BCC0009F1FF39A3607368013B002B73601BDDA7
:103BDC00336801333360A368013BA360D9E7BBF1C1
:103BEC00020FAFD1226802F4C061B1F5007FC5D1DC
:103BFC00102142F480726160A3E722F4106222600B
:103C0C000B7805F8013BDEE731465046D4F880319D
:103C1C0098470028DFD02368DB050DD5BD4209D9B4
:103C2C0015F8011C32465046D4F87C3105F1FF39A9
:103C3C0098474D46BD4227D0226812F0100212D18F
:103C4C002A7039466368019E5046B047D8F8003058
:103C5C0021681A1DC8F800208E061B680FD5186045
:103C6C00E3680133E36000202369ED1B5D442B44C2
:103C7C00236107B0BDE8F08F4FF0000BCBE7CA070C
:103C8C004CBF18801860EBE70120F2E7704A00087F
:103C9C000D3F0008D1310008C14B000870B50B78FE
:103CAC0004465E2B0BBF4B784A1C8A1C002108BFB4
:103CBC000121013804F1FF0500F8011FA842FBD1D6
:103CCC000BB9501E70BD81F001011046E154024643
:103CDC0012F8015B2D2D05D05D2D16D0002DF1D0E5
:103CEC002B46F2E746785D2EFAD0B342F8DC1A4642
:103CFC00023001329642A154FBDCF21A013AB34273
:103D0C00A8BF002201331344E1E71046DAE751F86B
:103D1C00043C181F002BBCBF0B58C01870472DE972
:103D2C00F0410C46496B04F1440399421BD14FF40A
:103D3C008061FEF763FE18B94FF0FF30BDE8F081EB
:103D4C004FF48063A36394F84630606380F8FF33CC
:103D5C0094F8453000F2FD30437094F84430037011
:103D6C0020600020EAE7A66B77003A46FFF78EF951
:103D7C0005460028E0D000EB0608014632464046D6
:103D8C00FFF7C0FAC4E90D57C4F80080E9E7F8B5AD
:103D9C000E461446054618B1036A0BB9FDF786FDAD
:103DAC00A369A360A3891A0701D5236943B92146E6
:103DBC00284600F0A7F818B14FF0FF373846F8BD89
:103DCC0023682269F6B2981A63693746834205DC88
:103DDC0021462846FFF7A2F80028EDD1A368013B45
:103DEC00A36023685A1C22601E706269431C9A42AD
:103DFC0004D0A389DB07E1D50A2EDFD12146284662
:103E0C00FFF78CF80028D9D0D6E70000242B2DE939
:103E1C00F0478646904601D8012B06D1FEF7D4F820
:103E2C00162303600020BDE8F0870D4633482A4670
:103E3C0015F8014B065D16F00806F8D12D2C10D1A3
:103E4C0001262C78951C33F0100215D1302C0DD195
:103E5C002A7802F0DF02582A08D16C780235102338
:103E6C000AE02B2C04BF2C78951CECE7002BF6D128
:103E7C00302C14BF0A230823002206F1004C0CF14D
:103E8C00FF3CBCFBF3F9104603FB19CAA4F1300745
:103E9C00092F0FD83C46A3421BDD571C07D0814588
:103EAC0014D301D1A24511DB012200FB034015F80C
:103EBC00014BEBE7A4F14107192F01D8373CEAE796
:103ECC00A4F16107192F04D8573CE4E74FF0FF32F7
:103EDC00EDE7531C08D122236046CEF80030B8F130
:103EEC00000FA0D0691E06E006B14042B8F1000FE9
:103EFC0099D0002AF6D1C8F8001094E7E54C0008D8
:103F0C00FFF784BF38B5284B054618680C4618B126
:103F1C00036A0BB9FDF7CAFCB4F90C301A0721D4AB
:103F2C00D80607D409222A6043F040034FF0FF3033
:103F3C00A38130E0590712D5616B41B104F1440300
:103F4C00994202D02846FFF7FFF900236363002251
:103F5C00B4F90C306260226923F02403226043F030
:103F6C000803A38122693AB99A0501D5180603D52D
:103F7C002146284600F03EF8B4F90C3013F001024B
:103F8C000AD00022A26062695242A261226942B93F
:103F9C0013F08000C8D138BD990758BF6269A26080
:103FAC00F4E70020F7E700BF6800002070B50C466E
:103FBC00B1F90E10154600291E4696B00ADAA189F1
:103FCC0011F0800113D14FF48062002031602A601F
:103FDC0016B070BD6A4600F09BF80028EFDB019923
:103FEC0001F47041A1F5005359425941EBE700210E
:103FFC004022EAE78B8973B59E0705460C4607D528
:10400C0004F14703236023610123636102B070BD97
:10401C0001AB6A46FFF7CAFF009E28463146FEF701
:10402C00EDFCB4F90C3038B99A05EFD423F0030346
:10403C0043F00203A381E3E743F08003A381019BD8
:10404C00C4E904062060002BE0D02846B4F90E1019
:10405C0000F03AF80028D9D0A38923F0030343F0E9
:10406C000103A381D2E71F2938B505460C4604D9B4
:10407C00162303604FF0FF3038BDC26B12B152F8FB
:10408C0021304BB9284600F041F82246014628461B
:10409C00BDE8384000F028B8012B0AD0591C03D1D8
:1040AC00162303600120E7E70021204642F8241084
:1040BC0098470020E0E70000024B01461868FFF724
:1040CC00D2BF00BF6800002038B50023054D044660
:1040DC0008462B60FCF724FD431C02D12B6803B16E
:1040EC00236038BDD803002038B50023064D0446A4
:1040FC00084611462B60FCF7DBFC431C02D12B68F5
:10410C0003B1236038BD00BFD8030020FCF7CEBC40
:10411C0038B50023064D0446084611462B60FCF7C3
:10412C00FAFC431C02D12B6803B1236038BD00BFDD
:10413C00D80300202DE9F047089D0F4604468E4613
:10414C00002B48D18A42164661D9B2FA82F24AB1A2
:10415C00C2F1200301FA02FE20FA03F3964043EA6F
:10416C000E0E94404FEA164CBEFBFCF1B7B20CFBA2
:10417C0011EE01FB07F0230C43EA0E43984209D9D8
:10418C00F31801F1FF3E80F0ED80984240F2EA8096
:10419C00023933441B1AB3FBFCF00CFB103300FB4D
:1041AC0007F7A4B244EA0344A74209D9341900F131
:1041BC00FF3380F0D980A74240F2D68034440238D5
:1041CC0040EA01400021E41B1DB10023D440C5E9A5
:1041DC000043BDE8F0878B4206D90DB1C5E900015B
:1041EC0000210846BDE8F087B3FA83F1002947D1D6
:1041FC00BB4202D3824200F20481841A67EB0302B1
:10420C0001209646002DE4D0C5E9004EE1E7002AD6
:10421C0000F09080B2FA82F2002A40F0A780881B4E
:10422C000121370C1FFA86FEB0FBF7FC07FB1C00C4
:10423C00230C43EA00430EFB0CF0984207D9F31809
:10424C000CF1FF3802D2984200F2E080C4461B1AEF
:10425C00B3FBF7F007FB10330EFB00FEA4B244EAED
:10426C000344A64507D9341900F1FF3302D2A64501
:10427C0000F2C9801846A4EB0E0440EA0C40A3E7F8
:10428C00C1F120068B4022FA06FC4CEA030C27FAFB
:10429C0006FA4FEA1C49BAFBF9F88F4020FA06F3EC
:1042AC0009FB18AA1FFA8CFE3B4300FA01F708FB26
:1042BC000EF01C0C44EA0A44A04202FA01F20BD99B
:1042CC001CEB040408F1FF3A80F09980A04240F204
:1042DC009680A8F102086444241A98B2B4FBF9F34E
:1042EC0009FB134403FB0EFE40EA0444A64508D91F
:1042FC001CEB040403F1FF307FD2A6457DD9023BB1
:10430C00644443EA0840A4EB0E04A0FB028E7445FF
:10431C004346F14661D35ED055B1FA1A64EB0904F9
:10432C0004FA06F622FA01F31E43CC40C5E90064F8
:10433C0000214EE743084FEA510C43EAC1710A0CC5
:10434C0042EA0C428BB2C407B2FBF6F143EA0243D9
:10435C00BCFBF6FCB646304637461F22181A41EA1B
:10436C000C4161E7714615E7184629E7C2F12003B5
:10437C0021FA03F0964024FA03F397403B43370CA1
:10438C00B0FBF7F807FB18001FFA86FE190C41EA80
:10439C00004108FB0EF0884204FA02F43AD9711875
:1043AC0008F1FF3C01D288421ED8091AB1FBF7F87C
:1043BC0008FB0EF007FB18119BB243EA0143834242
:1043CC002FD2F31808F1FF31C8D28342C6D2A8F11C
:1043DC0002013344C2E747459ED2B8EB02036EEBB1
:1043EC000C0E0138F14697E7301A0144A8F1020C83
:1043FC00B1FBF7F808FB0EF0DCE7034681E7D0468B
:10440C006AE70846FEE63444023834E7ACF1020CA5
:10441C0033441CE7091AC446B1FBF7F808FB0EF04D
:10442C00C8E741469AE700BFF8B500BFF8BC08BC26
:10443C009E467047F8B500BFF8BC08BC9E46704756
:10444C00AED580A83FD30040A1C8DA1281CFD9F1F4
:10445C00DB40A4A68D14AF0000000000000000009B
:10446C0000000000000000000000F8000000000048
:10447C000000333000000000100C06100C06000089
:10448C000000000000000040C07840C078400004EC
:10449C003F04043F040400007088FC083000000056
:1044AC001820FF211E0000F008F000E018000000AA
:1044BC00211C031E211E0000F00888700000001E45
:1044CC002123241927211010160E000000000000D3
:1044DC0000000000000000000000E01804020000D2
:1044EC000000071820400000020418E00000000043
:1044FC0040201807000000404080F080404000023F
:10450C0002010F01020200000000F0000000000197
:10451C0001011F01010100000000000000000080EB
:10452C00B07000000000000000000000000000005F
:10453C000101010101010100000000000000000068
:10454C003030000000000000000000806018040003
:10455C006018060100000000E010080810E00000E0
:10456C000F102020100F00001010F80000000000A9
:10457C0020203F20200000007008080888700000F0
:10458C003028242221300000300888884830000070
:10459C0018202020110E000000C02010F800000090
:1045AC00070424243F240000F80888880808000029
:1045BC0019212020110E0000E0108888180000003E
:1045CC000F112020110E0000380808C83808000010
:1045DC0000003F0000000000708808088870000090
:1045EC001C222121221C0000E010080810E0000011
:1045FC0000312222110F00000000C0C0000000009A
:10460C0000003030000000000000800000000000BE
:10461C0000806000000000000080402010080000B6
:10462C00010204081020004040404040404000047B
:10463C00040404040404000008102040800000005E
:10464C0020100804020100007048080808F000005F
:10465C0000003036010000C030C828E810E0000728
:10466C0018272423140B000000C038E000000020A1
:10467C003C23020227382008F88888887000002024
:10468C003F202020110E00C0300808080838000711
:10469C001820202010080008F808080810E0002056
:1046AC003F202020100F0008F88888E80810002010
:1046BC003F20202320180008F88888E808100020E4
:1046CC003F200003000000C0300808083800000735
:1046DC00182020221E020008F808000008F8082004
:1046EC003F210101213F20000808F80808000000C4
:1046FC0020203F2020000000000808F8080800C017
:10470C008080807F00000008F888C02818080020EE
:10471C003F20012638200008F80800000000002087
:10472C003F20202020300008F8F800F8F80800207E
:10473C003F003F003F200008F830C00008F8082078
:10474C003F200007183F00E01008080810E0000F99
:10475C0010202020100F0008F808080808F000208E
:10476C003F210101010000E01008080810E0000FD3
:10477C0018242438504F0008F88888888870002046
:10478C003F2000030C302000708808080838000017
:10479C0038202121221C00180808F80808180000ED
:1047AC0000203F2000000008F808000008F808006E
:1047BC001F202020201F000878880000C83808001F
:1047CC000007380E010000F80800F80008F8000394
:1047DC003C0700073C030008186880806818082014
:1047EC00302C03032C30200838C800C838080000CF
:1047FC0000203F2000000010080808C838080020DE
:10480C0038262120201800000000FE0202020000C1
:10481C0000007F40404000000C30C0000000000051
:10482C000000010638C00000020202FE0000000079
:10483C004040407F0000000000040202020400001F
:10484C0000000000000000000000000000000080DC
:10485C0080808080808080000202040000000000C4
:10486C00000000000000000000808080800000003C
:10487C0019242222223F2008F8008080000000002A
:10488C003F112020110E00000000808080000000ED
:10489C000E112020201100000000808088F80000FC
:1048AC000E112020103F200000808080800000002E
:1048BC001F222222221300008080F0888888180092
:1048CC0020203F202000000000808080808000009D
:1048DC006B94949493600008F80080808000002012
:1048EC003F210000203F200080989800000000002D
:1048FC0020203F202000000000008098980000003D
:10490C00C08080807F000008F8000080808000203C
:10491C003F24022D302000000808F80000000000A1
:10492C0020203F202000008080808080808000201C
:10493C003F20003F20003F808000808080000020CE
:10494C003F210000203F200000808080800000007C
:10495C001F202020201F008080008080000000800D
:10496C00FFA12020110E000000008080808000003C
:10497C000E112020A0FF808080800080808000208D
:10498C00203F2120000100000080808080800000FA
:10499C0033242424241900008080E080800000004F
:1049AC0000001F202000008080000000808000009C
:1049BC001F202020103F20808080000080808000FD
:1049CC00010E300806010080800080008080800F7E
:1049DC00300C030C300F00008080008080800000C1
:1049EC0020312E0E3120008080800000808080805D
:1049FC00818E70180601000080808080808000000D
:104A0C0021302C2221300000000000807C020200AA
:104A1C00000000003F40400002027C8000000000CB
:104A2C0040403F0000000000000000FF00000000BC
:104A3C00000000FF00000002030405060708090A35
:104A4C000B0C0D0E0F1010010200000000000000F6
:104A5C00000102030406070809000000000102031C
:104A6C0004000000C34B0008C64B0008C94B0008EB
:104A7C005245454E54206D616C6C6F6320737563A9
:104A8C00636565646564002F566F6C756D65732F77
:104A9C00646174612F6A656E6B696E732F776F72C8
:104AAC006B73706163652F474E552D746F6F6C631C
:104ABC006861696E2F61726D2D31342F7372632FA3
:104ACC006E65776C69622D63796777696E2F6E6599
:104ADC00776C69622F6C6962632F74696D652F67DF
:104AEC006D74696D652E6300545A00474D54002552
:104AFC0031315B2D2B302D39412D5A612D7A5D25AD
:104B0C006E002531315B412D5A612D7A5D256E0089
:104B1C004D256875256E2E256875256E2E256875B4
:104B2C00256E002F256875256E3A256875256E3A19
:104B3C00256875256E002C2066756E6374696F6E22
:104B4C003A2000617373657274696F6E202225734D
:104B5C0022206661696C65643A2066696C65202266
:104B6C002573222C206C696E6520256425732573B2
:104B7C000A00232D302B2000686C4C0065666745BD
:104B8C0046470030313233343536373839414243B9
:104B9C00444546003031323334353637383961626A
:104BAC006364656600412D46612D663839303132BB
:104BBC0033343536375D002B2D00303000785800FB
:104BCC0031313200466F72776172640032323400D8
:104BDC004261636B776172640025642D2530326409
:104BEC002D2530326400253032643A253032643A57
:104BFC0025303264005072657373656400554E49FC
:104C0C00434F524E5F4C493100554E49434F524E23
:104C1C005F4C493300000000000000001F00000042
:104C2C003B0000005A0000007800000097000000D4
:104C3C00B5000000D4000000F300000011010000DA
:104C4C00300100004E0100001F0000001C0000009D
:104C5C001F0000001E0000001F0000001E000000CE
:104C6C001F0000001F0000001E0000001F000000BD
:104C7C001E0000001F0000001F0000001C000000B0
:104C8C001F0000001E0000001F0000001E0000009E
:104C9C001F0000001F0000001E0000001F0000008D
:104CAC001E0000001F0000001F0000001D0000007F
:104CBC001F0000001E0000001F0000001E0000006E
:104CCC001F0000001F0000001E0000001F0000005D
:104CDC001E0000001F0000000020202020202020AB
:104CEC002020282828282820202020202020202090
:104CFC0020202020202020202088101010101010A0
:104D0C0010101010101010101004040404040404EB
:104D1C000404041010101010101041414141414185
:104D2C000101010101010101010101010101010167
:104D3C000101010110101010101042424242424277
:104D4C000202020202020202020202020202020237
:104D5C0002020202101010102000000000000000DF
:104D6C000000000000000000000000000000000037
:104D7C000000000000000000000000000000000027
:104D8C000000000000000000000000000000000017
:104D9C000000000000000000000000000000000007
:104DAC0000000000000000000000000000000000F7
:104DBC0000000000000000000000000000000000E7
:104DCC0000000000000000000000000000000000D7
:0C4DDC00000000000000000000000000CB
:084DE80094BDFF7F01000000F3
:044DF000AD0C0008FE
:044DF400850C000822
:104DF80000127A001000000053756E64617900009B
:104E080000004D6F6E646179000000005475657391
:104E18006461790000005765646E657364617900A8
:104E280054687572736461790000467269646179C7
:104E3800000000005361747572646179000000001D
:104E48004C02002000000000030000006C0200205B
:104E5800F74A0008F74A00086C000020000000002C
:104E68006C020020D40200203C0300200000000057
:104E7800000000000000000000000000000000002A
:104E8800000000000000000000000000000000001A
:104E9800000000000000000000000000000000000A
:104EA80000000000000000000100000000000000F9
:104EB8004A000000000000000000000000000000A0
:104EC80000000000000000000000000000000000DA
:104ED80000000000000000004A0000000000000080
:104EE80000000000000000000000000000000000BA
:104EF80000000000000000000000000000000000AA
:040000050800170DCB
:00000001FF
